S016000057656263616D4669726D776172652E7372656382
S21440000068C50120712B4000392C4000392C400037
S214400010392C4000392C4000392C400000000000AC
S214400020000000000000000000000000392C4000E6
S214400030392C400000000000392C4000392C40008C
S214400040392C4000392C4000392C4000392C4000D7
S214400050392C4000392C4000392C4000000000006C
S214400060392C4000392C400000000000C91D4000DB
S214400070E11D4000000000005D104000392C4000AB
S2144000800000000000000000392C4000392C4000E1
S214400090392C4000392C4000392C4000910E40004D
S2144000A0392C4000392C40000000000000000000C1
S2144000B000000000392C4000392C4000392C40000C
S2144000C0392C4000392C4000392C400010B5054CE6
S2144000D0237833B9044B13B10448AFF300800123AF
S2144000E0237010BDC009002000000000749140003D
S2144000F00C4B43B10C480D4910B5AFF300800C488B
S214400100036823B910BD0A48036833B97047094BE2
S214400110002BF7D0BDE810401847064B002BF5D013
S214400120184700BF0000000074914000C40900203A
S214400130749140000000000080B487B000AFF860C3
S214400140B9607A60FA68BB689B0113447B617B693F
S21440015002221A607B694FF0FF329A627B691B6A03
S2144001607B697A685A6000BF1C37BD4680BC7047C2
S21440017080B483B000AF786039607A683B689B0192
S214400180134405221A6000BF0C37BD4680BC70473A
S21440019080B485B000AFF860B9607A60FA68BB6832
S2144001A09B0113441C337A681A6000BF1437BD465F
S2144001B080BC704780B487B000AFF860B9607A60A2
S2144001C0FA68BB689B0113447B617B697A685A6214
S2144001D000BF1C37BD4680BC704780B485B000AFBA
S2144001E0786039607A683B689B011344FB60FB6823
S2144001F01B6A18461437BD4680BC704780B48DB025
S21440020000AFF860B9607A603B6002233B61082328
S2144002107B612023BB618023FB61BB6BDB0B3B62B6
S2144002200023FB621AE0FB6A9B0007F1300213448E
S21440023053F8203CBA68B2FBF3F3BB62BB6A1B0CB4
S2144002407B62FA68BB6A9A4201D9002323E0FA68C7
S2144002507B6A9A4206D2FB6A0133FB62FB6A042B36
S214400260E1D900E000BFFB6A042B01D9002312E06D
S2144002707B68002B08D0FB6A9B0007F130021344D2
S21440028053F8202C7B681A603B68002B02D03B68F2
S214400290FA6A1A60012318463437BD4680BC704758
S2144002A080B483B000AF78607B684FF400425A60F9
S2144002B000BF0C37BD4680BC7047000080B483B09A
S2144002C000AF0346FB71084997F907305B09FA7996
S2144002D002F01F02012000FA02F241F8232000BF7C
S2144002E00C37BD4680BC704700E100E080B483B068
S2144002F000AF0346FB71094997F907305B09FA7965
S21440030002F01F02012000FA02F2203341F82320B7
S21440031000BF0C37BD4680BC704700BF00E100E020
S21440032080B483B000AF0346FB71094997F90730A4
S2144003305B09FA7902F01F02012000FA02F26033EC
S21440034041F8232000BF0C37BD4680BC704700BF35
S21440035000E100E080B483B000AF03463960FB7133
S21440036097F90730002B0BDA0D49FB7903F00F03A2
S214400370043B3A68D2B21201D2B20B441A7609E074
S214400380084997F907303A68D2B21201D2B20B4404
S21440039083F8002300BF0C37BD4680BC704700BFC3
S2144003A000ED00E000E100E080B483B000AF78608C
S2144003B07B68072B25D801A252F823F0DD034000C6
S2144003C0E3034000E9034000EF034000F30340002E
S2144003D0F7034000FB034000FF0340004FF4FA439E
S2144003E010E04FF400430DE04FF400430AE0084BA2
S2144003F008E0084B06E0084B04E0074B02E0064BDB
S21440040000E0002318460C37BD4680BC704700BF4E
S21440041000093D0000127A00001BB70080B500AF0F
S2144004200620044B9847024613469B0013449B0005
S214400430184680BDA903400080B500AF024B9847E0
S21440044003465B08184680BD1D04400080B48BB050
S21440045000AF78600B46FB707B687B62FB7887F862
S21440046023307B6AFB61FB69BB61BB695B097B61CF
S2144004707B6903F5001303F207735B023B6197F851
S2144004802330002B09D07B6AFB60FB6803F01F0318
S21440049001229A403B691A6308E07B6ABB60BB68EE
S2144004A003F01F0301229A403B695A6300BF2C3772
S2144004B0BD4680BC7047000080B483B000AF786013
S2144004C03960044B01221A6000BF0C37BD4680BC21
S2144004D0704700BFDC09002090B583B002AF084BE0
S2144004E0009301234FF400420B210648064CA047D8
S2144004F00B20064B984700BF0437BD4690BD00BF53
S214400500B9044000000E0E40291D4000BD024000C8
S21440051080B582B000AF786039603868224B984723
S2144005207B68D3F8503123F001027B68C3F8502132
S2144005307B68D3F8583143F008027B68C3F85821EB
S2144005407B68D3F8503123F030027B68C3F85021E3
S2144005507B68D3F8503143F020027B68C3F85021C3
S2144005607B68D3F8503123F400727B68C3F850217F
S2144005707B68D3F8503123F480627B68C3F85021FF
S2144005807B68D3F8503143F480627B68C3F85021CF
S2144005907B68D3F8503123F400627B68C3F850215F
S2144005A000BF0837BD4680BD8D29400080B485B069
S2144005B000AFF860B9607A60FB68D3F86C31002B06
S2144005C012D1FB68D3F87C31002B0DD1BA68FB689A
S2144005D0C3F86821FB687A68C3F86C21FB6801227F
S2144005E0C3F8882101230FE0FB68D3F87C31002B49
S2144005F009D1BA68FB68C3F87821FB687A68C3F803
S2144006007C21012300E0002318461437BD4680BCF9
S214400610704700002DE9F04F85B000AF614B98471A
S2144006204FF000610320604B98474FF00061042074
S2144006305D4B98474FF0006111205B4B98474FF059
S21440064000611720584B98474FF040511520564BA5
S214400650984771211020544B984771210F20524BD8
S214400660984752491820504B9847504919204E4BAE
S21440067098474E491A204C4B98474C491B204A4BAA
S21440068098474A491C20484B984748491D20464BA6
S214400690984746491E20444B984744491F20424BA2
S2144006A09847434B23225A64414B4FF400721A60DA
S2144006B000BF3F4B9B6803F40073002BF9D00B211F
S2144006C03C483D4B9847012114203C4B984713200B
S2144006D03B4B98473B4B984703467B603A4BBB6047
S2144006E03B1D194639483A4B98471320394B984793
S2144006F01320394B984700211320384B9847132036
S214400700374B984700BF3148364B98470346012B36
S214400710F9D004212D48344B98472A4B9847034636
S21440072019464FF000020B461446DB1844EB04040F
S2144007305B1844EB02044FEA041B4BEA137B4FEA78
S214400740031A53465C465B1A64EB02044FEAC4093C
S21440075049EA53794FEAC30843464C465B1A64EB72
S2144007600204E60046EA5376DD002B463446194638
S214400770224643F2AF634FF00004CD1842EB040626
S21440078028463146194C43F2B0624FF00003A0476A
S21440079003460C461846164B984700BF1437BD46CE
S2144007A0BDE8F08FD90440007124400001000028C5
S2144007B000040E40000E0E40110540004D0440005F
S2144007C08D29400039044000801A06000080014010
S2144007D045154000ED02400021034000550340000F
S2144007E0BD024000F50B4000810C40000533400040
S2144007F00100002080B500AF4FF400411548164B6D
S214400800984700BF154B1B68002BFBD04FF40041A8
S2144008101048134B98470F48124B9847124B1B886B
S2144008209BB29B089BB21A4610490A48104B984701
S21440083000BF084BD3F8603103F00803082BF8D10B
S21440084004480C4B9847054B00221A6000BF1846D8
S21440085080BD00BF000E0E400F244000DC09002083
S21440086029244000452640000A000020AC0A00200B
S214400870AD0540007126400080B483B000AF002331
S2144008807B60054B1B78044B5B78002318460C377F
S214400890BD4680BC704700BFAC0A002080B483B021
S2144008A000AF78607B68072B25D801A252F823F06A
S2144008B0D1084000D7084000DD084000E30840006B
S2144008C0E7084000EB084000EF084000F30840000F
S2144008D04FF4FA4310E04FF400430DE04FF400436A
S2144008E00AE0084B08E0084B06E0084B04E0074BDC
S2144008F002E0064B00E0002318460C37BD4680BC9D
S214400900704700BF00093D0000127A00001BB70088
S21440091080B500AF0620044B9847024613469B001E
S21440092013449B00184680BD9D08400080B500AF2C
S214400930024B984703465B08184680BD11094000A5
S21440094080B58EB000AF78600023FB600023BB60AC
S214400950302387F834300A2387F824300123BB62DB
S21440096007F10C03FB6201233B6307F1240319469E
S21440097078680E4B9847302387F820300B233B741B
S21440098001237B6107F10803BB610123FB6107F18B
S214400990100319467868054B9847FB681A02BB68EF
S2144009A0134318463837BD4680BD00BFD90A4000BD
S2144009B080B58AB000AF786000233B610023FB60BF
S2144009C01C233B750123BB61302387F8243007F195
S2144009D01003FB6101233B6207F114031946786854
S2144009E0104B98471D233B750123BB61302387F886
S2144009F0243007F10C03FB6101233B6207F114032B
S214400A0019467868074B98473B697F2B04D1FB68AB
S214400A10A22B01D1002300E0012318462837BD460B
S214400A2080BD00BFD90A400080B58AB000AF78606C
S214400A3000233B610023FB600023BB6001233B7522
S214400A400123BB61302387F8243001233B6207F142
S214400A500C03FB6107F11403194678681C4B984752
S214400A60AD23BB6007F10803FB6107F11403194689
S214400A707868184B984707F11003FB6107F1140399
S214400A8019467868124B98473A69BB689A4201D033
S214400A90012318E007F10C03FB6107F11403194624
S214400AA078680C4B984707F11003FB6107F1140375
S214400AB019467868064B98473A69FB689A4201D0CF
S214400AC0012300E0002318462837BD4680BD00BFFE
S214400AD0D90A4000FD0A400080B584B000AF786077
S214400AE0396039687868044B9847F860FB68184660
S214400AF01037BD4680BD00BFF916400080B584B0B3
S214400B0000AF7860396039687868044B9847F86079
S214400B10FB6818461037BD4680BD00BF051840002C
S214400B202DE9F0488AB000AF7860396000237B62D8
S214400B303B683B6248E03B6A1B78FE2B26D1294B3C
S214400B409847034619464FF000020B461446A60047
S214400B5046EA93769D002B4634465B1844EB0204E7
S214400B6043F2AF614FF0000213EB010B44EB020C73
S214400B70584661461C4C43F2B0624FF00003A04713
S214400B8003460C461846194B98471AE03B6A1B78B2
S214400B903B720123FB6030233B7601237B613B6A3B
S214400BA001333B6107F1080319467868104B9847B4
S214400BB0F8617B6A01337B62FB69082B01D1FB69D4
S214400BC00BE03B6A02333B623B6A1B78FF2BB2D199
S214400BD03B6A5B78FF2BAED1002318462837BD46CC
S214400BE0BDE8F0882D094000053340000100002094
S214400BF0FD0A400080B58AB000AF7860012387F8D0
S214400C00233007F10C0300221A605A609A60DA60BB
S214400C101A61FF233B7301233B6107F123037B618A
S214400C200123BB6130233B7707F10C0319467868F4
S214400C300F4B984700237B6278680E4B9847786244
S214400C407B6A1B0ADBB2262B0DD178680A4B984785
S214400C500346002B07D17868084B98470346002B7D
S214400C6001D1002300E0012318462837BD4680BD49
S214400C70FD0A400041094000B1094000290A4000F1
S214400C8080B584B000AF78600B46FB700023FB60F5
S214400C90FB78112B5CD801A252F823F0E50C4000FB
S214400CA0EB0C4000F10C4000F70C4000FD0C4000FF
S214400CB0030D4000090D40000F0D4000150D40008B
S214400CC01B0D4000210D4000270D40002D0D40001B
S214400CD0330D4000390D40003F0D4000450D4000AB
S214400CE04B0D4000224BFB6033E0224BFB6030E074
S214400CF0214BFB602DE0214BFB602AE0204BFB6044
S214400D0027E0204BFB6024E01F4BFB6021E01F4B9D
S214400D10FB601EE01E4BFB601BE01E4BFB6018E0BA
S214400D201D4BFB6015E01D4BFB6012E01C4BFB604F
S214400D300FE01C4BFB600CE01B4BFB6009E01B4BC1
S214400D40FB6006E01A4BFB6003E01A4BFB6000E0DA
S214400D5000BFFB68002B05D0F9687868164B9847AB
S214400D60002300E0012318461037BD4680BD00BF73
S214400D7024824000A4834000B8834000CC834000D7
S214400D801C84400070844000C484400014854000A9
S214400D9068854000BC854000AC8640009C8740008B
S214400DA08C8840007C894000708A4000648B4000FC
S214400DB0588C40004C8D4000210B400080B483B0DE
S214400DC000AF0346FB71084997F907305B09FA798B
S214400DD002F01F02012000FA02F241F8232000BF71
S214400DE00C37BD4680BC704700E100E080B483B05D
S214400DF000AF78607B68072B25D801A252F823F015
S214400E00210E4000270E40002D0E4000330E4000BD
S214400E10370E40003B0E40003F0E4000430E400061
S214400E204FF4FA4310E04FF400430DE04FF4004314
S214400E300AE0084B08E0084B06E0084B04E0074B86
S214400E4002E0064B00E0002318460C37BD4680BC47
S214400E50704700BF00093D0000127A00001BB70033
S214400E6080B500AF0620044B9847024613469B00C9
S214400E7013449B00184680BDED0D400080B500AF82
S214400E80024B984703465B08184680BD610E4000FB
S214400E9080B582B000AF002109480A4B9847786079
S214400EA07B6803F01003002B06D0074B1B78DBB2A1
S214400EB00133DAB2044B1A7000BF0837BD4680BD16
S214400EC000000140DB014000EC09002090B587B0EF
S214400ED002AF184B9847F8601720174B9847391DB4
S214400EE007F10802FB6800930B46F9680120134C93
S214400EF0A0477B6843F480431A4600211048114BB4
S214400F009847BB68FA68B2FBF3F31A4600210C48D0
S214400F100D4B984717200D4B984710220021084844
S214400F200B4B9847002106480A4B984700BF14379A
S214400F30BD4690BD7D0E40008D294000FD0140001D
S214400F40000001403901400091014000BD0D4000C5
S214400F50B50140007101400080B483B000AF034645
S214400F60FB71084997F907305B09FA7902F01F02CE
S214400F70012000FA02F241F8232000BF0C37BD469C
S214400F8080BC704700E100E080B483B000AF78607A
S214400F907B68072B25D801A252F823F0BD0F4000EE
S214400FA0C30F4000C90F4000CF0F4000D30F400092
S214400FB0D70F4000DB0F4000DF0F40004FF4FA43EE
S214400FC010E04FF400430DE04FF400430AE0084BB6
S214400FD008E0084B06E0084B04E0074B02E0064BEF
S214400FE000E0002318460C37BD4680BC704700BF63
S214400FF000093D0000127A00001BB70080B500AF24
S2144010000620044B9847024613469B0013449B0019
S214401010184680BD890F400080B500AF024B984708
S21440102003465B08184680BDFD0F400080B500AF04
S214401030024B984703465B08184680BDFD0F4000AC
S21440104080B582B000AF78607868034B984700BFA1
S2144010500837BD4680BD00BF8D29400080B582B0B0
S21440106000AF0D480D4B984778607B6803F480537B
S214401070002B0CD00A4908480A4B98470A4B0122D5
S2144010801A70074B1B68DBB21846084B984700BFE0
S2144010900837BD4680BD00BF004002403D1B4000B3
S2144010A0E0090020011C4000E4090020B110400087
S2144010B080B483B000AF0346FB71074B1B680749FB
S2144010C0FA79CA54044B1B680133034A136000BFC5
S2144010D00C37BD4680BC7047E80900204C91012083
S2144010E080B584B000AF786039600C4B98470C4BA5
S2144010F000221A600023FB6007E00A4AFB6813449C
S21440110000221A70FB680133FB60FB68B3F57A7FF8
S214401110F3D300BF1037BD4680BD00BF2911400045
S214401120E80900204C91012080B500AF13491448CF
S214401130144B98470346002B03D0134B02221A60E9
S21440114019E012490E480F4B98470346002B03D030
S2144011500D4B04221A600EE00D490948094B98478A
S2144011600346002B03D0084B05221A6003E0064BCB
S2144011704FF47A621A6000BF80BD00BF3C8E4000CC
S2144011804C910120FD394000F00900204C8E400073
S214401190648E400080B483B000AF78603960044B02
S2144011A001221A7000BF0C37BD4680BC704700BF96
S2144011B0ED090020B0B586B000AF214B3C461D4639
S2144011C00FCD0FC495E8030084E803001D4B9847F5
S2144011D002461D4B1A600E201C4B98471A4B1A6845
S2144011E03B4619461A481B4B98474FF0FF31184864
S2144011F0194B98471648194B98471548184B984727
S21440120001211348174B98470E20174B98474FF02D
S21440121000610520154B98474FF000610620134BA0
S21440122098474FF000610820104B98474FF00061F8
S21440123007200E4B984700BF1837BD46B0BD00BFCD
S214401240748E40002D104000F409002041104000EC
S21440125000400240691A4000231B4000A91A400083
S214401260D91A4000091B4000590F40007124400025
S21440127090B583B002AF0B200E4B98470A224FF42E
S21440128080510D480D4B98470D4B009371234FF4FA
S21440129080520B2108480B4CA0470B200A4B98471E
S2144012A04FF480510448094B984700BF0437BD4669
S2144012B090BD00BF8D294000000E0E407B214000AF
S2144012C0E1104000291D4000590F40000F24400007
S2144012D090B583B002AF0B200C4B98470A220121F1
S2144012E00B480C4B98470C4B0093492301220B218B
S2144012F007480A4CA0470B20094B98470121044851
S214401300084B984700BF0437BD4690BD8D29400026
S214401310000E0E407B21400095114000291D4000E4
S214401320590F40000F24400080B582B000AF78606F
S2144013300B46FB700C4B00221A7079680B480C4B1E
S21440134098470C4B00221A6000BF074B1B78DBB255
S214401350FA789A4203D9074B1B68002BF5D000BF9A
S2144013600837BD4680BD00BFEC0900200040024063
S214401370D11B4000F00900202DE9F04F9FB000AF90
S2144013805E4B98470346002B00F0B38000237B67F4
S21440139008E007F11C027B6F1A44002313707B6F32
S2144013A001337B677B6F4F2BF3DD544B98470346E7
S2144013B01A4607F11C0352491846524B984707F104
S2144013C01C0305211846504B9847504B1B68022B70
S2144013D04BD100214E484C4B98474E4B98470346BE
S2144013E019464FF000020B46144660017861786952
S2144013F040EAD36078615B013B61D7E904345B1A0D
S21440140064EB0204A000F860F86840EA9370F86065
S2144014109B00BB60D7E902345B1844EB0204E20051
S2144014207A607A6842EA53727A60DB003B60D7E9BA
S21440143000341946224643F2AF634FF00004CD18FD
S21440144042EB040628463146334C43F2B0624FF036
S2144014500003A04703460C461846304B98470123E6
S2144014603B673B6F01333B6743E0284B1B68042BCD
S2144014703AD1284B9847034619464FF000020B4690
S21440148014464FEA441B4BEAD36B4FEA431A534683
S2144014905C465B1A64EB02044FEA840949EA937996
S2144014A04FEA830843464C465B1844EB0204A600CA
S2144014B046EA93769D002B4634461946224643F22A
S2144014C0AF634FF00004CD1842EB04062846314681
S2144014D0114C43F2B0624FF00003A04703460C465F
S2144014E018460E4B984704E00123FB66FB6E01331B
S2144014F0FB6600BF7C37BD46BDE8F08F79084000EC
S2144015008C8E40000137400029134000F00900202F
S214401510AC0A0020191040000533400001000020AE
S21440152080B483B000AF78607B6808221A607B681E
S21440153020221A607B6804221A6000BF0C37BD4622
S21440154080BC704780B584B000AF786039600023B7
S214401550FB607B684FF0FF329A627B681B6A786854
S2144015600E4B984778680E4B98473B6859683B68DF
S2144015701B681A4678680B4B98470346012B01D1E7
S2144015800123FB603B685B7A012B02D17B684022DB
S2144015901A60FB6818461037BD4680BDE11840000B
S2144015A021154000A915400080B489B000AFF8600E
S2144015B0B9607A600023FB61BB68344A934201D924
S2144015C001235DE0BB68324A934237D97B68314A93
S2144015D0A2FB03239B0B043B7B61BA682E4B134450
S2144015E09B007A68B2FBF3F3043B3B6105E0FB6982
S2144015F00133FB617B695B087B617B69FF2B09D903
S214401600FB69062BF3D905E0FB690133FB613B69B7
S2144016105B083B613B69FF2B02D9FB69062BF3D97C
S2144016207B69DAB23B691B029BB21A43FB691B0417
S21440163003F4E0231A43FB681A6120E0BB685B00B2
S2144016407A68B2FBF3F3043BBB6105E0FB69013308
S214401650FB61BB695B08BB61BB69FF2B02D9FB69B9
S214401660062BF3D9BB69DAB2BB691B029BB21A439D
S214401670FB691B0403F4E0231A43FB681A6100234A
S21440168018462437BD4680BC704700BF801A060007
S21440169000DC0500F11976050012FD3F80B485B0E8
S2144016A000AF786039603B68002B01D100231DE015
S2144016B07B681B78FB603B68012B09DDFB681B02DF
S2144016C0FB607B6801331B781A46FB681343FB605C
S2144016D03B68022B09DDFB681B02FB607B6802331C
S2144016E01B781A46FB681343FB60FB6818461437A2
S2144016F0BD4680BC7047000080B588B000AF7860BB
S21440170039603B68DB68FB613B689B68BB610023D4
S214401710FB7547F230533B61FB69002B01D1012337
S21440172069E07B6800225A603B681B7C1B0403F41C
S214401730FE023B685B681B0203F44073134343F4AA
S21440174080527B685A607B680022DA603A683B6861
S2144017505B68194610462A4B984702467B68DA6013
S214401760FB69012B05D17B6803221A600123FB75B8
S21440177034E07B6801221A600023FB752EE07B680C
S2144017801B6AFB60FB6803F48073002B01D00523C3
S21440179031E03B695A1E3A61002B01D109232AE009
S2144017A0FB69012B07D1FB7D002B04D17B6802220D
S2144017B01A600123FB75FB6803F00203002B00D17F
S2144017C00CE0BB695A1CBA617A68126BD2B21A70C6
S2144017D0FB69013BFB6147F230533B61FB69002BE1
S2144017E0CDD100BF7B681B6A03F00103002BF9D004
S2144017F07B681B6A002318462037BD4680BD00BF65
S2144018009D16400080B586B000AF786039603B6872
S214401810DB687B613B689B683B617B69002B01D141
S214401820012356E07B6800225A603B681B7C1B0401
S21440183003F4FE023B685B681B0203F440731A43E2
S2144018407B685A607B680022DA603A683B685B686F
S21440185019461046214B984702467B68DA6019E0E5
S2144018607B681B6AFB60FB6803F48073002B01D027
S21440187005232EE0FB6803F00403002B00D109E0AB
S2144018803B695A1C3A611B781A467B685A637B69E7
S214401890013B7B617B69002BE2D17B681B6AFB6066
S2144018A0FB6803F48073002B01D0052311E0FB682E
S2144018B003F00403002B00D1EFE700BF7B68022251
S2144018C01A6000BF7B681B6A03F00103002BF9D047
S2144018D0002318461837BD4680BD00BF9D16400001
S2144018E080B483B000AF78607B6880221A607B68E3
S2144018F01B6B00BF0C37BD4680BC704780B489B0B8
S21440190000AFF860B9607A60BB681A017B689A429B
S21440191002D81023FB6101E00823FB617B68DA00F4
S214401920FB69B96801FB03F35B081A44FB69B968B5
S21440193001FB03F3B2FBF3F3BB61BB69DB087B61DE
S214401940BB6903F007033B617B69002B03D07B69CF
S214401950B3F5803F01D301230FE0FB69082B05D187
S214401960FB685B6843F40022FB685A603B691A04D4
S2144019707B691A43FB681A62002318462437BD4623
S21440198080BC704780B582B000AF786078680F4BF7
S21440199098477B6800225A607B6800225A627B68C0
S2144019A000229A6278680A4B98477868094B9847AD
S2144019B07868094B98477868084B98477868084B8A
S2144019C0984700BF0837BD4680BD00BF351C400065
S2144019D0C11A4000F11A4000531B4000871B4000CC
S2144019E06D1B400080B584B000AFF860B9607A6087
S2144019F0F8681A4B98471A4B00221A60BB68002BAF
S214401A0009D0BB681B687A681946F868154B984732
S214401A100346002B01D001231BE0BB685A68BB6815
S214401A209B681A43BB681B691A43BB68DB681A434A
S214401A300B4B1B6813430A4A1360094B1B68084A42
S214401A401360FB685A68064B1B681A43FB685A606B
S214401A50002318461037BD4680BD00BF851940009C
S214401A60F8090020FD18400080B584B000AFF8604B
S214401A70B9607A607A68B968F8680A4B984703464E
S214401A80002B01D0012308E0FB685B6823F00F03BE
S214401A9043F00202FB685A60002318461037BD46E2
S214401AA080BD00BFE519400080B483B000AF7860C9
S214401AB07B6840221A6000BF0C37BD4680BC70472A
S214401AC080B483B000AF78607B6888221A6000BF1D
S214401AD00C37BD4680BC704780B483B000AF78609A
S214401AE07B6810221A6000BF0C37BD4680BC70472A
S214401AF080B483B000AF78607B6824221A6000BF51
S214401B000C37BD4680BC704780B483B000AF786069
S214401B1039607B683A689A6000BF0C37BD4680BC27
S214401B20704780B483B000AF786039607B683A68AD
S214401B30DA6000BF0C37BD4680BC704780B483B0C7
S214401B4000AF78607B685B6918460C37BD4680BC42
S214401B50704780B483B000AF78607B684FF4807283
S214401B601A6000BF0C37BD4680BC704780B483B057
S214401B7000AF78607B684FF400321A6000BF0C37C5
S214401B80BD4680BC704780B483B000AF78607B6849
S214401B904FF400221A6000BF0C37BD4680BC704729
S214401BA080B483B000AF7860396000BF7B685B6903
S214401BB003F00203002BF9D03B68C3F308027B68AE
S214401BC0DA61002318460C37BD4680BC70470000DB
S214401BD080B582B000AF7860396007E03B685A1C39
S214401BE03A601B7819467868044B98473B681B78E0
S214401BF0002BF3D100BF0837BD4680BDA11B400077
S214401C0080B483B000AF786039607B685B6903F06E
S214401C100103002B01D1012306E07B689B69C3F3D7
S214401C2008023B681A60002318460C37BD4680BC45
S214401C307047000080B483B000AF78607B68044A89
S214401C40C3F8E42000BF0C37BD4680BC704700BFD9
S214401C500041535580B584B000AF786039607868ED
S214401C602C4B9847F86078682B4B98470246FB68A1
S214401C701340FB60FB68002B3CD00023BB6034E085
S214401C80264ABB681B0113441A683B689A4226D111
S214401C90224ABB681B01134404331A68FB6813408E
S214401CA0002B1CD01D4ABB681B0113440C331B6819
S214401CB01A49BA6812010A4410681849BA681201EB
S214401CC00A440432126811469847144ABB681B01FE
S214401CD0134404331B68DB43FA681340FB60BB685D
S214401CE00133BB60BB68062B03D8FB68002BC7D10B
S214401CF000E000BF0A4B1B68002B07D0094B1B684F
S214401D00002B03D0074B1B687868984700BF1037F6
S214401D10BD4680BD4324400059244000FC090020B5
S214401D2038950120700A002080B586B000AFF86074
S214401D30B9607A603B60214B1B68062B01D90123B2
S214401D4038E00023FB7511E0FB7D1B011C4A134461
S214401D503B613B691A68BB689A4204D13B695A6842
S214401D607B689A4208D0FB7D0133FB75FA7D134BA6
S214401D701B689A42E8D900E000BF3B69BA681A601F
S214401D803B697A685A603B693A689A603B693A6A46
S214401D90DA60FA7D094B1B6801339A4204D1074B3F
S214401DA01B680133054A13603A687968F868054B42
S214401DB09847002318461837BD4680BD6C0A002059
S214401DC0FC090020A523400080B500AF0B21024847
S214401DD0024B984700BF80BD000E0E40551C400089
S214401DE080B500AF0C210248024B984700BF80BD2B
S214401DF000100E40551C400080B582B000AF7860A1
S214401E007B68072B31D801A252F823F0691E4000A8
S214401E102D1E4000351E40003D1E4000451E400021
S214401E204D1E4000551E40005F1E40000020114BD6
S214401E3098471AE001200F4B984716E000200E4BBB
S214401E40984712E010200C4B98470EE020200A4B93
S214401E5098470AE03E210020084B984705E03E217F
S214401E600120064B984700E000BF00BF0837BD463C
S214401E7080BD00BF1D27400089274000F92740004D
S214401E8080B582B000AF78607B68072B26D801A269
S214401E9052F823F0B51E4000B91E4000B91E40005F
S214401EA0CB1E4000CB1E4000CB1E4000CB1E400049
S214401EB0CB1E4000012312E00B4B98470346002BF5
S214401EC014BF01230023DBB209E0084B98470346C2
S214401ED0002B14BF01230023DBB200E0002318468A
S214401EE00837BD4680BD00BF5527400071284000DA
S214401EF080B483B000AF78607B68072B25D801A2FA
S214401F0052F823F0251F40002B1F4000311F400091
S214401F10371F40003B1F40003F1F4000431F40000C
S214401F20471F40004FF4FA4310E04FF400430DE0E3
S214401F304FF400430AE0084B08E0084B06E0084B25
S214401F4004E0074B02E0064B00E0002318460C373F
S214401F50BD4680BC704700BF00093D0000127A00B5
S214401F60001BB70080B582B000AF0346FB7100BFD0
S214401F70FB791846054B9847034683F00103DBB2CE
S214401F80002BF5D100BF0837BD4680BD811E4000FE
S214401F9080B586B000AFF8607A603B600B46FB7257
S214401FA0FB7A18460D4B984702467B68B2FBF3F324
S214401FB07B617B693A6802FB03F37B613B68013BCC
S214401FC01A04074B13407A68D2B2134343F47C5248
S214401FD0FB681A6000BF1837BD4680BDF11E400042
S214401FE00000FF0780B582B000AF786039603B687C
S214401FF0002B08D1094B9847094A7B681B6843F079
S2144020000053936205E0074B9847054A7B681B6878
S214402010D36200BF0837BD4680BD00BFDD28400004
S21440202000040E405D29400080B582B000AF786065
S2144020307B68002B03D1054B9847034602E0044BD0
S2144020409847034618460837BD4680BDF5284000E9
S2144020507529400080B582B000AF0346FB71FB791E
S214402060033B042B08D8FB791846064B9847FB7968
S2144020701846054B984700E000BF00BF0837BD46EE
S21440208080BD00BFF91D4000651F400080B582B08E
S21440209000AF786000BF7868044B98470346002B33
S2144020A0F9D0002318460837BD4680BD2920400099
S2144020B080B500AF0620044B9847024613469B0067
S2144020C013449B00184680BDF11E400080B500AF0B
S2144020D0024B984703465B08184680BDB120400037
S2144020E090B583B000AF1148114B98470620114B6E
S2144020F09847381D1423012206210F4CA0473B1D4C
S214402100002118460D4B984700200D4B984710204D
S2144021100C4B98470C4B98470C4B98470346184631
S214402120034B984700BF0C37BD4690BD000E2707AF
S214402130D92D400055204000911F4000E51F40002B
S2144021408D2040009D264000412C4000CD20400080
S21440215080B485B000AFF860B9607A607B68002BC9
S21440216003D0FB68BA685A6602E0FB68BA681A662B
S21440217000BF1437BD4680BC704780B485B000AF02
S214402180F860B9607A60FB68BA68C3F884207B68F8
S2144021905B004FF40042B2FBF3F3013BC3F30D0286
S2144021A0FB68C3F88C2000BF1437BD4680BC704720
S2144021B080B487B000AFF860B9607A60FB687A6830
S2144021C05A64BB68B3F1C05F4AD0B3F1C05F08D869
S2144021D0B3F1006F16D0B3F1805F2CD0002B69D0DE
S2144021E064E0B3F1205F65D0B3F1205F03D8B3F16C
S2144021F0005F4AD05AE0B3F1405F5BD0B3F1605F16
S21440220058D053E0FB681B6F7B61FB681A6F7B6896
S214402210D9437B690B401A40FB681A67FB685B6FC3
S2144022207B61FB685A6F7B68D9437B690B401A40D9
S214402230FB685A673AE0FB681B6F7B617A687B698C
S2144022401A43FB681A67FB685B6F7B61FB685A6FD3
S2144022507B68D9437B690B401A40FB685A6725E088
S214402260FB681B6F7B61FB681A6F7B68D9437B6991
S2144022700B401A40FB681A67FB685B6F7B617A68A5
S2144022807B691A43FB685A6710E0FB681B6F7B61EB
S2144022907A687B691A43FB681A67FB685B6F7B61E9
S2144022A07A687B691A43FB685A6700BFFB687A689E
S2144022B05A6000E000BF1C37BD4680BC7047000037
S2144022C080B584B000AFF860B9607A60B968F868E5
S2144022D0194B98477B6803F001031A46B968F868BB
S2144022E0164B98477B6803F00A03002B03D0FB6825
S2144022F0BA681A6202E0FB68BA685A627B6803F002
S2144023000203002B04D0FB68BA68C3F8802008E0BC
S2144023107B6803F00803002B03D0FB68BA68C3F859
S2144023208420FB68BA685A61FB68BA681A6000BFC6
S2144023301037BD4680BD00BF2924400051214000D3
S21440234080B584B000AFF860B9607A603B60B96829
S214402350F868124B9847BA69B968F868104B9847BE
S2144023603B68002B03D0FB68BA681A6502E0FB683E
S214402370BA685A657B68002B03D0FB68BA681A6354
S21440238002E0FB68BA685A63FB68BA681A61FB6881
S214402390BA681A6000BF1037BD4680BD2924400089
S2144023A05121400080B485B000AFF860B9607A60D3
S2144023B07B6803F01003002B20D0FB68BA68C3F894
S2144023C0B0207B6803F02003002B04D0FB68BA687B
S2144023D0C3F8D42003E0FB68BA68C3F8D0207B6813
S2144023E003F04003002B04D0FB68BA68C3F8C02053
S2144023F008E0FB68BA68C3F8C42003E0FB68BA6824
S214402400C3F8B42000BF1437BD4680BC704780B4C4
S21440241083B000AF786039607B683A681A6400BF62
S2144024200C37BD4680BC704780B483B000AF786040
S21440243039607B683A685A6400BF0C37BD4680BC3A
S214402440704780B483B000AF78607B68DB6C18461A
S2144024500C37BD4680BC704780B483B000AF786010
S2144024607B689B6C18460C37BD4680BC70470000A6
S21440247090B587B002AF786039607868634B98470C
S214402480F8603B6803F0F043B3F1005F67D0B3F108
S214402490005F09D8B3F1805F2BD0B3F1C05F43D063
S2144024A0B3F1006F0AD0A9E0B3F1405F7ED0B3F13C
S2144024B0605F7BD0B3F1205F6CD09FE07B6803F019
S2144024C01F03012202FA03F31A464FF00061F86830
S2144024D04F4B98477B6803F01F03012202FA03F331
S2144024E019463B6803F001031A46F868494B98477B
S2144024F086E07B6803F01F03012202FA03F31A46C4
S2144025004FF08051F868424B98477B6803F01F03B2
S214402510012202FA03F319463B6803F001031A4608
S214402520F8683C4B98476BE07B6803F01F0301223A
S21440253002FA03F31A464FF0C051F868344B9847F6
S2144025407B6803F01F03012202FA03F319463B6837
S21440255003F001031A46F8682E4B984750E07B6814
S21440256003F01F03012202FA03F31A464FF000510C
S214402570F868274B98477B6803F01F03012202FA4E
S21440258003F319463B6803F001031A46F868214BEB
S214402590984735E07B6803F01F03012202FA03F3F5
S2144025A03A681946F8681C4B984729E07B6803F060
S2144025B01F03012202FA03F319463B6803F06053F7
S2144025C0B3F1605F0CBF01230023DBB21A463B68C1
S2144025D003F00403002B14BF01230023DBB218468C
S2144025E03B6803F00103002B14BF01230023DBB23A
S2144025F000930346F868094CA04701E0002300E03A
S214402600012318461437BD4690BD00BF2126400022
S214402610B121400051214000C122400041234000EA
S21440262080B485B000AF78607B685B0903F5001323
S21440263003F207735B02FB60FB6818461437BD461F
S21440264080BC704780B483B000AF78607B68D3F8B6
S214402650503143F001027B68C3F85021034B0122FE
S2144026601A6000BF0C37BD4680BC704738950120C5
S21440267080B483B000AF78607B68D3F8503123F0E5
S21440268001027B68C3F85021034B00221A6000BF4A
S2144026900C37BD4680BC70473895012080B485B065
S2144026A000AF78601C491C4B1B6B23F070027B68A4
S2144026B013430B634FF40063FB6007E0FB68002B9B
S2144026C001D1012323E0FB68013BFB60124B9B6E6C
S2144026D003F00803002BF1D00F4A0F4B1B6B23F07F
S2144026E0030343F0020313634FF40063FB6007E009
S2144026F0FB68002B01D1012309E0FB68013BFB602E
S214402700054B9B6E03F00803002BF1D000231846C0
S2144027101437BD4680BC704700040E4080B483B07A
S21440272000AF78607B68012B07D1084A074B9B684F
S21440273043F0254343F480139360044B044A1A60E5
S21440274000BF0C37BD4680BC704700BF10140E401B
S214402750080000A580B400AF094B5B6903F0800316
S214402760002B07D0074B9B6E03F08003002B01D055
S214402770012300E000231846BD4680BC704700BFDA
S21440278010140E4000040E4080B483B000AF786052
S214402790184A184B1B6A43F45C1343F00803136251
S2144027A000BF144B9B6E03F40033002BF9D0114945
S2144027B0104B1B6A23F45C1323F070037A681343B0
S2144027C043F45C130B6200BF0A4B9B6E03F400336A
S2144027D0002BF9D0074A074B1B6A23F09B7323F460
S2144027E0803343F45C13136200BF0C37BD4680BC95
S2144027F0704700BF00040E4080B483B000AF7860DE
S21440280039607B68002B08D01649164B1B6A164A5F
S2144028101A40164B13430B621EE01249114B1B6ABB
S21440282023F45C1323F003033A68120292B2134374
S21440283043F45C1343F001030B6200BF094B9B6EED
S21440284003F00103002BF9D0064A064B1B6A43F0FF
S2144028509B7343F48033136200BF0C37BD4680BC85
S214402860704700BF00040E40FCFFC8FE0200370160
S21440287080B400AF034B9B6E03F480331846BD46CE
S21440288080BC704700040E4080B584B000AFF8604E
S214402890B9607A600E4B98470E487B68DAB2BB68E0
S2144028A01B0203F47C531A43FB6819040A4B0B4083
S2144028B0134343F00053836200BF064B9B6E03F006
S2144028C00203002BF9D000BF1037BD4680BD00BFC5
S2144028D0DD28400000040E400000FF0780B400AF33
S2144028E0034B4FF000529A6200BFBD4680BC704713
S2144028F000040E4080B400AF034B9B6E03F002030F
S2144029001846BD4680BC704700040E4080B584B073
S21440291000AFF860B9607A600D4B98470D487B6809
S214402920DAB2BB681B0203F47C531A43FB681904F3
S214402930094B0B401343C36200BF064B9B6E03F02C
S2144029400403002BF9D000BF1037BD4680BD00BF42
S2144029505D29400000040E400000FF0780B400AF31
S214402960034B0022DA6200BFBD4680BC704700BF02
S21440297000040E4080B400AF034B9B6E03F004038C
S2144029801846BD4680BC704700040E4080B483B0F5
S21440299000AF78607B68222B01D901232FE07B684B
S2144029A01F2B13D8184B9A6901217B6801FA03F351
S2144029B01A4001217B6801FA03F39A421ED0124A5C
S2144029C001217B6801FA03F3136117E07B68203B23
S2144029D07B600D4BD3F8082101217B6801FA03F395
S2144029E01A4001217B6801FA03F39A4206D0064A50
S2144029F001217B6801FA03F3C2F800310023184630
S214402A000C37BD4680BC704700040E4080B582B08F
S214402A1000AF78607868034B984700BF0837BD46DC
S214402A2080BD00BF8D29400080B500AF0B20034B12
S214402A3098470C20014B984700BF80BD0D2A4000A8
S214402A4080B48DB000AF78600B46FB707B68FB624D
S214402A50FB7887F82B30FB6A7B627B6A3B623B6A7B
S214402A605B09FB61FB6903F5001303F207735B0226
S214402A70BB6197F82B30012B09D1FB6A7B617B69E0
S214402A8003F01F0301229A40BB691A610CE097F8D5
S214402A902B30002B08D1FB6A3B613B6903F01F03D8
S214402AA001229A40BB695A61FB6AFB60FB6803F0EF
S214402AB01F0301229A40BB69C3F8A02000BF3437E9
S214402AC0BD4680BC704780B48BB000AF78600B4684
S214402AD0FB707B687B62FB7887F823307B6AFB6100
S214402AE0FB69BB61BB695B097B617B6903F50013CE
S214402AF003F207735B023B6197F82330002B09D043
S214402B007B6AFB60FB6803F01F0301229A403B6927
S214402B101A6308E07B6ABB60BB6803F01F030122B0
S214402B209A403B695A6300BF2C37BD4680BC70470D
S214402B3080B500AF0B4B9847012121200A4B9847A0
S214402B4000212120094B984700210B20064B98472F
S214402B5000210020044B984700210C20024B984748
S214402B6000BF80BD292A4000412A4000C72A4000B5
S214402B7080B584B000AF274BFB60274BBB60FA683C
S214402B80BB689A420DD907E0BB681A1DBA60FA685E
S214402B90111DF96012681A60BB68204A9342F3D34D
S214402BA020E0FA68BB689A421CD21C4A1A4BD31AD9
S214402BB07B60FA687B681344043BFB60BA687B68BA
S214402BC01344043BBB600AE0BB681A1FBA60FA684D
S214402BD0111FF96012681A607B68043B7B607B6853
S214402BE0002BF1D100BF0E4BBB6004E0BB681A1D42
S214402BF0BA6000221A60BB680A4A9342F6D30A4B70
S214402C00FB600A4AFB689360094B9847094B984714
S214402C10FEE700BF7491400000000020C00900207D
S214402C20C0090020649501200000400000ED00E04F
S214402C30153640002130400080B400AFFEE700006B
S214402C4080B400AF5D4B1B6B03F00303032B00F215
S214402C50968001A252F823F0692C4000892C40004F
S214402C60D32C4000D32C4000554B5B6903F08003C7
S214402C70002B04D0534B4FF400421A6080E0514B77
S214402C804FF4FA421A607BE04C4B1B6A03F08073A9
S214402C90002B03D04B4B4C4A1A6071E0494B4B4AD1
S214402CA01A60464B1B6A03F07003102B08D0202B8B
S214402CB00AD0002B00D00BE0424B444A1A6007E093
S214402CC0404B434A1A6003E03E4B3F4A1A6000BFFF
S214402CD056E03A4B1B6A03F08073002B03D0394B07
S214402CE0394A1A6019E0374B384A1A60334B1B6A28
S214402CF003F07003102B08D0202B0AD0002B00D0F6
S214402D000BE0304B314A1A6007E02E4B304A1A60CF
S214402D1003E02C4B2C4A1A6000BF284B1B6B03F079
S214402D200303022B15D1254B9B6A1B0CC3F30A03E6
S214402D300133244A126802FB03F3224A13601F4BF6
S214402D409B6ADBB21F4A1268B2FBF3F31D4A13605C
S214402D5016E01A4BDB6A1B0CC3F30A030133194A0D
S214402D60126802FB03F3174A1360144BDB6ADBB2AC
S214402D70144A1268B2FBF3F3124A136000E000BF35
S214402D800E4B1B6B03F07003702B08D10D4B1B686A
S214402D90104AA2FB03235B080A4A13600AE0074B6B
S214402DA01B6B1B0903F00703064A126822FA03F35B
S214402DB0044A136000BFBD4680BC704700040E4006
S214402DC010140E400C000020001BB70000093D0008
S214402DD000127A00ABAAAAAA80B483B000AF78608B
S214402DE07B68184A934204D8174B4FF080621A60AB
S214402DF023E07B68154A934203D8134B144A1A6063
S214402E001BE07B68134A934203D80F4B124A1A6062
S214402E1013E07B68114A934203D80B4B104A1A6062
S214402E200BE07B680F4A934204D8074B4FF00422CE
S214402E301A6002E0044B0C4A1A6000BF0C37BD46CD
S214402E4080BC7047FF2C3101000A0E40FF596202D9
S214402E5000010004FF86930300020004FFB3C4048D
S214402E6000030004FFE0F5050005000480B485B0CB
S214402E7000AF7860104BFB60104B1B68002B02D1F4
S214402E800E4B0F4A1A600D4B1B68BB60BA687B68D6
S214402E901A44FB689A4202DD4FF0FF3306E0074BC8
S214402EA01A687B681344054A1360BB681846143793
S214402EB0BD4680BC704700BFFCFF0120740A00205E
S214402EC068C5012080B483B000AF78607B68072B6C
S214402ED025D801A252F823F0F92E4000FF2E4000DC
S214402EE0052F40000B2F40000F2F4000132F4000AF
S214402EF0172F40001B2F40004FF4FA4310E04FF4CA
S214402F0000430DE04FF400430AE0084B08E0084B4E
S214402F1006E0084B04E0074B02E0064B00E00023C7
S214402F2018460C37BD4680BC704700BF00093D00C0
S214402F3000127A00001BB70080B500AF0620044B95
S214402F409847024613469B0013449B00184680BD94
S214402F50C52E400080B500AF024B984703465B083D
S214402F60184680BD392F400080B48BB000AF7860E3
S214402F700B46FB707B687B62FB7887F823307B6A66
S214402F80FB61FB69BB61BB695B097B617B6903F5E0
S214402F90001303F207735B023B6197F82330002B64
S214402FA009D07B6AFB60FB6803F01F0301229A404E
S214402FB03B691A6308E07B6ABB60BB6803F01F038B
S214402FC001229A403B695A6300BF2C37BD4680BCFD
S214402FD0704780B489B000AF78607B68FB61FB695E
S214402FE0BB61BB697B617B695B093B613B6903F500
S214402FF0001303F207735B02DA6BFB69FB60FB6846
S21440300003F01F03012101FA03F31340002B14BF02
S21440301001230023DBB218462437BD4680BC7047E8
S2144030202DE9F04F9BB000AF9C4B98479C489D4B7A
S21440303098479D4B98479D4B984700219C489D4BF1
S21440304098479D4B98479D4B98479D4B98470021E6
S21440305021209C4B98479C4B9847034619464FF077
S21440306000020B461446A60046EA93769D002B4681
S21440307034465B1844EB0204DB1844EB0404194660
S214403080224643F2AF634FF00004CD1842EB0406ED
S214403090284631468D4C43F2B0624FF00003A047BD
S2144030A003460C4618468A4B984701212120854BFB
S2144030B098471320874B9847012201210720864BCB
S2144030C09847012201210720844B9847844B984714
S2144030D00BE0844B1B78DBB2002B06D005218248E0
S2144030E0824B98477F4B00221A700B20804B9847A4
S2144030F0034683F00103DBB2002BEAD1794B1B7801
S214403100DBB2002B07D005217748784B9847754BA4
S21440311000221A70F2E70B20754B9847034687F853
S214403120633097F86330002B64D000237B6608E05A
S21440313007F110027B6E134400221A707B6E013337
S2144031407B667B6E4F2BF3DD07F11003694A1C4606
S21440315013460FCB84E80F0007F1100305211846ED
S214403160624B9847644B1B68052B04D0634B9847CB
S214403170634B9847C2E7544B9847034619464FF06F
S21440318000020B4614464FEA441949EAD3694FEA0F
S214403190431843464C465B1A64EB02044FEA840BE2
S2144031A04BEA937B4FEA830A53465C465B1844EBF4
S2144031B00204E200FA60FA6842EA5372FA60DB0000
S2144031C0BB60D7E902341946224643F2AF634FF05C
S2144031D00004CD1842EB0406284631463B4C43F2E9
S2144031E0B0624FF00003A04703460C461846384BE3
S2144031F0984783E700212120324B9847324B984727
S214403200034619464FF000020B461446DB1844EBC3
S21440321004045B1844EB0204E0007860786840EAF7
S21440322053707860DB003B60D7E900345B1844EBB2
S2144032300204DB1844EB04041946224643F2AF630B
S2144032404FF00004CD1842EB0406284631461F4C8A
S21440325043F2B0624FF00003A04703460C461846C0
S2144032601B4B984701212120164B98470BE01D4BDE
S2144032701B78DBB2002B06D005211B481B4B98471A
S214403280184B00221A700B20194B9847034683F0C0
S2144032900103DBB2002BEAD130E700BFE12040005B
S2144032A050140E40A1024000312B4000CD0E40008D
S2144032B00000014071014000B5114000711240000D
S2144032C0D1124000692F4000552F40000533400082
S2144032D0010000208D2940000D294000892840002B
S2144032E015064000ED090020A08E4000291340003E
S2144032F0D32F4000AC8E4000F0090020F507400078
S2144033007913400053B94AB9002908BF00281CBFAA
S2144033104FF0FF314FF0FF3000F07AB9ADF1080CB6
S2144033206DE904CE00F006F8DDF804E0DDE902239E
S21440333004B070472DE9F0478C460D460446089E7B
S214403340002B51D18A4217466DD9B2FA82FEBEF1A1
S214403350000F0BD0CEF1200C01FA0EF520FA0CFC33
S21440336002FA0EF74CEA050C00FA0EF44FEA174A3A
S214403370250CBCFBFAF81FFA87F90AFB18CC45EA7D
S2144033800C4508FB09F3AB420AD9ED1908F1FF32A8
S21440339080F02381AB4240F22081A8F102083D44F0
S2144033A0ED1AA4B2B5FBFAF00AFB105544EA054400
S2144033B000FB09F9A14509D9E41900F1FF3380F073
S2144033C00A81A14540F2078102383C44A4EB090437
S2144033D040EA08400021002E61D024FA0EF4002373
S2144033E034607360BDE8F0878B4207D9002E54D016
S2144033F0002186E821000846BDE8F087B3FA83F14D
S214403400002940F08E80AB4202D3824200F2FA801E
S214403410841A65EB03050120AC46002E3FD086E8B3
S2144034201010BDE8F08712B90127B7FBF2F7B7FADC
S21440343087FEBEF1000F34D1EB1B3A0C1FFA87FC17
S2144034400121B3FBF2F8250C02FB183345EA03458D
S2144034500CFB08F3AB4207D9ED1908F1FF3002D256
S214403460AB4200F2D1808046ED1AA3B2B5FBF2F033
S21440347002FB105543EA05440CFB00FCA44507D963
S214403480E41900F1FF3302D2A44500F2B880184692
S214403490A4EB0C0440EA08409DE731463046BDE8C0
S2144034A0F087CEF1200405FA0EF307FA0EF720FA5D
S2144034B004F83A0C25FA04F448EA0308B4FBF2F19F
S2144034C04FEA184502FB11441FFA87FC45EA0445BB
S2144034D001FB0CF3AB4200FA0EF409D9ED1901F1E9
S2144034E0FF3080F08A80AB4240F2878002393D440C
S2144034F0EB1A1FFA88F5B3FBF2F002FB103345EAED
S214403500034500FB0CF3AB4207D9ED1900F1FF3839
S2144035106FD2AB426DD902383D44EB1A40EA0141C6
S2144035208FE7C1F1200722FA07F88B4005FA01F42D
S21440353048EA030320FA07FE4FEA134CFD404EEAE2
S214403540040EB5FBFCF94FEA1E440CFB19551FFA56
S21440355083F844EA054509FB08F4AC4202FA01F256
S21440356000FA01FA08D9ED1809F1FF3043D2AC420F
S21440357041D9A9F102091D442D1B1FFA8EFEB5FB49
S214403580FCF00CFB10554EEA054400FB08F8A0453D
S21440359007D9E41800F1FF3529D2A04527D90238CB
S2144035A01C4440EA0940A4EB0804A0FB02894C45B1
S2144035B0C6464D4615D312D056B1BAEB0E0364EB51
S2144035C0050404FA07F7CB401F43CC4037607460CD
S2144035D00021BDE8F0871846F8E69046E0E6C2458A
S2144035E0EAD2B8EB020E69EB03050138E4E7284659
S2144035F0D7E7404691E78146BEE7014678E702387E
S2144036003C4445E7084608E7A8F102083D442BE756
S214403610704700BF70B50F4E0F4D761BB61018BFE3
S214403620002405D0013455F8043B9847A642F9D10A
S2144036300A4E0B4D761B05F087FDB61018BF0024CA
S21440364006D0013455F8043B9847A642F9D170BDE0
S21440365070BD00BF54914000549140005C914000C2
S2144036605491400070B4860746D0541E002A41D07C
S214403670CAB2034602E014F1FF343BD303F8012BF1
S2144036809D07F8D1032C2ED9CDB245EA05250F2C3F
S21440369045EA054519D903F110022646103E0F2E7D
S2144036A042F8105C42F80C5C42F8085C42F8045C55
S2144036B002F11002F2D8A4F1100222F00F0204F038
S2144036C00F041032032C13440DD91E462246043AEA
S2144036D0032A46F8045BFAD8221F22F0030204327B
S2144036E0134404F003042CB1C9B21C4403F8011B74
S2144036F09C42FBD170BC704714460346C2E700BFED
S2144037000EB4F0B59CB021AB0F4953F8042B01938F
S21440371005466FF00044086802954FF402774FF66E
S214403720FF7602A90695ADF8147004940794ADF898
S214403730166000F06FFA029B00221A701CB0BDE8BB
S214403740F04003B0704700BF100000202DE9F04164
S2144037504FF0010E744600254FF0FF362B198B4272
S21440376000EB06070DD23F5D10F803C0BC452DD2D6
S2144037701D460124A3EB060E2B198B4200EB0607D1
S214403780F1D34FF00108C2F800E0444600254FF060
S214403790FF372B19994200EB070E0ED91EF804E0AE
S2144037A010F803C0F44518D91D460124A3EB0708BA
S2144037B02B19994200EB070EF0D80137701C874250
S2144037C024BFC2F800803846BDE8F0810CD04FF0E8
S2144037D0010E2E4674467544C0E70BD04FF00108E4
S2144037E02F4644464544D4E7744512BF01341D462F
S2144037F00124B3E7444512BF01341D460124C8E7FF
S2144038002DE9F04FADF2144D164605468B46104650
S214403810194603AA1C46FFF799FF03AB81460DF2F3
S2144038200C4243F8044F9342FBD14CB1631E721EC8
S21440383004A812F8011F40F8213013F1FF33F8D2E4
S21440384003994A463144304602F012FF00286FD1B1
S21440385009F1FF330093F3188246019323468046CE
S214403860544658469A4608EB0A073A1A0021284416
S21440387002F0AEFE002856D1002F54D0EB1904AA11
S21440388013F8013C52F823304BB124B1039A9342CB
S21440389001D2AAEB0203984400243846E3E74C459D
S2144038A023460AF1FF3E38BF4B46734513D208EB1A
S2144038B0030216F803C0A85C84452A4406EB0301BD
S2144038C006D02CE011F801CF12F8010F844526D11E
S2144038D001337345F6D34C45009980F08980009BB0
S2144038E008EB0302019BA85C1B7898422A447FD1D0
S2144038F0019804F1FF3B06E010F801CD12F801ED07
S214403900F44503D119464B1E9B45F5D101348C42F4
S21440391070D8039C3846A044AAEB0404A3E7C9F138
S21440392001029044B7E700200DF2144DBDE8F08F39
S214403930A4EB09034B4538BF4B46013309F1FF382A
S214403940039306EB080358464FF0000ACB469946C9
S2144039500AEB04073A1A0021284402F039FE0028F0
S214403960E1D1002FDFD0EB1904AA13F8013C52F83E
S2144039702330A3BB611E8B4515D20AEB0B0216F80B
S2144039800B3015F802E09E452A4406EB0B005B46DA
S21440399006D027E010F801CF12F801EFF44521D108
S2144039A001338B42F6D3B8F1FF3F11D00AEB080241
S2144039B099F80010AB5C99422A440FD14B4605E07B
S2144039C013F8010D12F8011D884207D1B342F7D112
S2144039D005EB0A000DF2144DBDE8F08F039B9A44A8
S2144039E03846B5E7CBF1010292449A443846AFE7F1
S2144039F049468BE705EB080096E700BF0278002AA9
S214403A0000F001812DE9F04F91F8008085B04446E2
S214403A10B8F1000F16D0864601F1010C012703E0ED
S214403A2013F8014B6CB19C46A24214BF002707F026
S214403A3001071EF8012F6346002AF1D19CF800309A
S214403A40FBB917B105B0BDE8F08F0E4605464146B6
S214403A500130ACEB060403F0EDF9074688B1012CC3
S214403A60F0D02819874294BFC11B01211F2C8B46DA
S214403A700BD9234632463846FFF7C2FE05B0BDE8AE
S214403A80F08F002005B0BDE8F08F03AA21463046EF
S214403A90FFF75CFE0399804602463144304602F00A
S214403AA0E7FD002857D108F1FF330093F31881460D
S214403AB0054601935846B2466619321A00213844E4
S214403AC002F086FD0028DCD1002EDAD0C8454346F9
S214403AD038BF4B469C4212D95A191AF80310B85CA4
S214403AE081423A440AEB030E06D02CE01EF8010F42
S214403AF012F8011F884226D101339C42F6D1C845B0
S214403B00009940F28380009BEA18019BB85C1B78C2
S214403B1098423A447AD1019809F1FF3B06E010F802
S214403B2001CD12F801EDF44503D119464B1E5B4515
S214403B30F5D109F10109894557D8039B30461D4404
S214403B40A4EB0309B8E7C8F1010215441D444FF041
S214403B5000093046B0E7A4EB0803434538BF434668
S214403B60013308F1FF39039306EB09035846002555
S214403B70BB469A4667193A1A0021584402F028FD77
S214403B8000287FF47EAF002F3FF47BAF444515D925
S214403B9008EB050216F808301BF8020098425A4413
S214403BA006EB0801434606D023E011F801EF12F871
S214403BB0010F86451DD101339C42F6D1B9F1FF3F36
S214403BC012D005EB09029AF800301BF80210994211
S214403BD05A4414D1534605E013F8010D12F8011D5E
S214403BE088420CD1B342F7D15F46781905B0BDE89C
S214403BF0F08FC8F1010215441D443846BAE7039BCE
S214403C0038461D44B6E70B7813B97047414690E7EF
S214403C10002070472DE9F04FC3B00C460B919246FA
S214403C200F930C9002F00CFA03681A93184603F0B0
S214403C3087F9A3891990190603D52369002B01F04B
S214403C40038000230DF1C80913931593149327930B
S214403C50269318931B930993CDF89490C8461693D1
S214403C6017939AF800305446E3B1252B02D119E059
S214403C70252B03D014F8013F002BF9D1A4EB0A05FD
S214403C8085B1269B279AC8F800A001332A44072B03
S214403C90C8F80450279226937FDC08F10808099B51
S214403CA02B4409932378002B7FD000231A468DF8A7
S214403CB0773019460D939B464FF0FF3063780A9055
S214403CC004F1010A0AF1010AA3F12000582800F283
S214403CD0C183DFE810F03802BF03BF034002BF03D2
S214403CE0BF03BF03BF03BF03BF0345020302BF03B7
S214403CF05D006B02BF0386029D039D039D039D03EB
S214403D009D039D039D039D039D03BF03BF03BF0308
S214403D10BF03BF03BF03BF03BF03BF03BF033703D6
S214403D205703BF035703BF03BF03BF03BF03980335
S214403D30BF03BF03AD03BF03BF03BF03BF03BF0340
S214403D405902BF03BF031E03BF03BF03BF03BF0326
S214403D50BF03BF03BF03BF03BF03BF03C602DB02ED
S214403D605703570357038B02DB02BF03BF03900280
S214403D70BF039D02CC01B4020802BF03E101BF03AA
S214403D807E00BF03BF030D020D980F9340420D9077
S214403D904BF0040B9AF8003094E725AA0B990C9840
S214403DA003F03CF940B9C84679E7279B23B10C9805
S214403DB00B9925AA03F032F90B9B9B8913F0400F11
S214403DC0099B18BF4FF0FF330993099843B0BDE8ED
S214403DD0F08F1BF0200F119340F0DD810F9A1BF0FF
S214403DE0100F134640F06E851BF0400F00F06A85BA
S214403DF014880432002501230F9200278DF877702F
S214403E000A994A1C00F065822BF08002079254EA19
S214403E10050240F06482002940F03C84002B40F0CC
S214403E20D7841BF001030E9300F0048642AE302385
S214403E3006F8413D0A9B0E9A9342B8BF1346089334
S214403E400023129317B1089B01330893079B13F086
S214403E500203109302D0089B02330893079B13F08B
S214403E60840540F00E830D9B089AA3EB020BBBF132
S214403E70000F40F30683BBF1100F279C269A29DDDE
S214403E8043462146A84610270C9C0B9D06E0ABF106
S214403E90100BBBF1100F03F1080318DD0132B748D1
S214403EA026921031072A279183E88100EFDD25AA64
S214403EB02946204603F0B2F800287FF47DAFABF1E8
S214403EC0100BBBF1100F2799269A4B46E6DC454669
S214403ED00C4698460132A94B26925C44072A279402
S214403EE088E8080800F398849DF8777008F1080879
S214403EF077B1269B013301340DF177010122072B60
S214403F002794269388E8060000F3DB8308F1080828
S214403F10109B6BB1269B013302341EA90222072B4D
S214403F202794269388E8060000F3D68308F108080D
S214403F30802D00F015830A9B0E9A9F1A002F36DDBF
S214403F40102F269B8E4D27DD42462146B0464FF029
S214403F50100B2E460C9C0B9D04E0103F102F02F1D8
S214403F60080215DD01331031072B2791269382E88E
S214403F704008F2DD25AA2946204603F04FF80028DF
S214403F807FF41AAF103F102F2799269B4A46E9DC4C
S214403F9035460C464646904601333C44072B27940C
S214403FA0269388E8A00000F3818308F10808079B61
S214403FB0DF0500F16882269B0E99C8F80060013341
S214403FC00C44072B2794C8F80410269300F34D831F
S214403FD008F10808079B5B073AD50D9B089A9D1A7F
S214403FE0002D35DD102D269B20DD10260C9FDDF89C
S214403FF02CB004E0103D102D08F1080816DD013302
S2144040005E4A26931034072B279488E84400F1DD57
S21440401025AA5946384603F001F800287FF4CCAE6E
S214404020103D102D279C269BC846E8DC0133534A9A
S21440403026932C44072B279488E8240008DD25AADD
S2144040400B990C9802F0EAFF00287FF4B5AE279C47
S214404050099B0D9A08998A42ACBF9B185B18099336
S214404060002C40F00D8300232693C846F9E51193B3
S2144040701BF0200340F0E3811BF0100240F02E843A
S2144040801BF0400300F02A840F9913460A46043278
S2144040900C880F920025B0E60F9A119316680024FC
S2144040A08DF87740151D002E00F0A7860A9A531CFF
S2144040B000F009862146304602F08AFA002800F0D1
S2144040C0E186831B0E930A940F95CDF81CB023EA25
S2144040D0E373089312949DF87770B3E69AF800302D
S2144040E001222B21EEE54BF0200B9AF80030E9E553
S2144040F01193002A40F09587224B18931BF0200F0F
S21440410040F011810F9A1BF0100F134640F0E183E8
S2144041101BF0400F00F0DD83043314880F93002516
S2144041201BF0010F00F00C8154EA050300F00881F3
S21440413030239DF844208DF878308DF879204BF068
S214404140020B022359E69AF8003000297FF4BAADF4
S21440415001222021B6E54BF0010B9AF80030B1E57C
S2144041600F9C23680D9318460028234603F104034A
S214404170FFF60AAE0F939AF80030A3E5048F40008E
S214404180148F4000E48E40004BF0100B1BF0200FC5
S21440419011933FF423AE0F9D073525F0070303F137
S2144041A00802D3E900450F92012326E69AF800302C
S2144041B02A2B0AF1010400F02787A3F130000928D2
S2144041C0A24600F2AD8600231C461AF8013B04EBDB
S2144041D0840400EB4404A3F130000928F5D90A947E
S2144041E072E54BF0800B9AF800306BE54BF0400BD5
S2144041F09AF8003066E59AF800306C2B03BF9AF8C0
S21440420001304BF0200B0AF1010A4BF0100B59E538
S214404210002A40F011871BF0200F40F0F9841BF075
S214404220100F40F0AC841BF0400F00F0A8840F9AAB
S214404230136804320F92BDF824201A8011E50F99B6
S214404240B34B0C6818933022782304318DF87930BC
S21440425011934BF0020B0F9100258DF87820022326
S214404260CBE50F9911930A688DF8A02000230A46E3
S2144042701F468DF87730043201230893CDF81CB0E2
S2144042800A9712970F920E9328AEDFE51193002AF5
S21440429040F0EA861BF0200F5DD11BF0100F40F077
S2144042A008831BF0400F00F004830F99B1F90040DB
S2144042B00431E51722462B460F91002A73F100037E
S2144042C058DB0A999DF877704A1C4FF001037FF43B
S2144042D09BAD54EA050200F0DF81CDF81CB0012BFF
S2144042E000F07B82022B40F0068218984E46230947
S2144042F004F00F0143EA05732A091C461546435C41
S21440430006F8013D54EA0503F1D1A9EB06030E93E6
S21440431090E51193002A40F0A3867E4B18931BF03D
S214404320200F3FF4EFAE0F9D073525F0070303F14E
S21440433008021BF0010F0F92D3E900457FF4F4AE5C
S21440434002235AE51193002A40F086864BF0100B64
S2144043501BF0200FA1D00F9D073525F00705D5E9A6
S2144043600023002A05F108011D4673F100030F9152
S2144043701446A6DA2D27644265EB45058DF877701E
S21440438001233DE51193002A40F062860F9D0735D4
S21440439025F0070303F108020F921A6815925B682E
S2144043A01493149B159D23F00044284621464FF055
S2144043B0FF32594B03F0F8FE002840F04A83284667
S2144043C021464FF0FF32544B03F0D0FE002840F019
S2144043D0408315A80DC8149903F0BEFE002840F08F
S2144043E030859DF877704D4E4D4B2BF080000790F2
S2144043F011980322002108920A914728D8BF1E46EA
S2144044000E9212911EE54BF0080B9AF8003059E4D4
S214404410A3F1300000231C461AF8013B04EB840449
S21440442000EB4404A3F130000928F5D90D944BE481
S2144044304BF0100B11931BF020033FF41DAE0F9D65
S214404440073525F0070303F10802D3E900450F922C
S2144044500023D2E41193002A40F0E785119A002AFF
S2144044603FF4A3AC002301211F4608918DF8A020FD
S214404470CDF81CB08DF877300A9312930E9128AE83
S214404480E4E4279C34E5119B652B40F3A78015A8F0
S2144044900DC8149903F056FE002800F05081269B64
S2144044A0204AC8F80020013301340122072B279404
S2144044B02693C8F8042000F36A8308F108081F9B77
S2144044C0139A279C934203DB079BDD077FF582AD5B
S2144044D0269B19991A9AC8F8002001330C44072BDA
S2144044E0C8F804102794269300F39E8308F1080822
S2144044F0139B5E1E002E7FF76DAD102E269B0A4D39
S21440450040F3F58122461027DDF830B00B9C13E0CF
S214404510E48E4000D08E4000FFFFEF7FC48E400008
S214404520C08E4000008F4000148F400008F10808FD
S214404530103E102E40F3DA8101331032072B2792BB
S214404540269388E8A000F1DD25AA2146584602F0C9
S21440455065FD00287FF430AC279A269BC846E7E7DF
S2144045600D9B089A9F1A002F7FF7E5AC102F269BCD
S214404570B64D27DD42462146B0464FF0100B2E463C
S2144045800C9C0B9D04E0103F102F02F1080215DD35
S21440459001331031072B2791269382E84008F2DD3D
S2144045A025AA2946204602F039FD00287FF404ACAF
S2144045B0103F102F2799269B4A46E9DC35460C4685
S2144045C04646904601333C44072B2794269388E87A
S2144045D0A00000F3328208F10808ACE4139B269F43
S2144045E0012B40F3FE81013701340123072F279426
S2144045F02697C8F80060C8F8043000F3038208F134
S2144046000808199A1A9BC8F8003001371444072F37
S21440461027942697C8F8042000F3008208F108087B
S21440462015A80DC8149903F08DFD139B002840F083
S2144046300181013B013701361C44072F26972794FA
S214404640C8F80060C8F8043000F3278108F108086D
S2144046501B9AC8F804200137144421AB072F27942F
S2144046602697C8F800307FF7B3AC25AA0B990C986C
S21440467002F0D4FC00287FF49FAB279CC846A9E4F0
S21440468025AA0B990C9802F0C9FC00283FF4EBAC25
S214404690FFF792BBDDF81CB0012B00F03481022BF3
S2144046A025D1CDF81CB0002400251EE625AA0B997E
S2144046B00C9802F0B3FC00287FF47EAB279CC846DB
S2144046C075E425AA0B990C9802F0A8FC00287FF404
S2144046D073AB279CC8461BE425AA0B990C9802F09E
S2144046E09DFC00287FF468AB279CC84620E4CDF8A4
S2144046F01CB000240025494600E03146E20842EA64
S2144047004572E80804F0070305461446303354EA79
S214404710050201F8013C01F1FF36EED1079AD207B7
S2144047207FF5F3AD302B3FF4F0AD0239302306F879
S214404730013CA9EB01030E930E46FFF77BBB1F9986
S214404740002940F32E82129B139A9342A8BF134629
S214404750002B1F460DDD269BC8F8006001333C4405
S214404760072B2794C8F80470269300F31F8308F19C
S2144047700808129B002FA8BFDB1B002B1F4640F3E8
S214404780D680102F269B314D40F3ED814246214680
S214404790B0464FF0100B2E460C9C0B9D04E00832A2
S2144047A0103F102F40F3DB8101331031072B279148
S2144047B0269382E84008F2DD25AA2946204602F0E4
S2144047C02DFC00287FF4F8AA2799269B4A46E7E75F
S2144047D00A9B0E934E46FFF72DBB002D08BF0A2CB2
S2144047E0C0F08F804E46204629460A220023FEF718
S2144047F089FD303206F8012D2046294600230A223C
S214404800FEF780FD04460D4654EA0503EBD1A9EBBE
S21440481006030E93FFF70EBB25AA0B990C9802F0E1
S214404820FDFB00287FF4C8AA9DF87770279CC846F1
S214404830FFF75EBB5E1E002E7FF70AAF102E034DBD
S21440484022DD22464FF0100B0C9C06E0148F4000F1
S214404850103E102E08F1080815DD01371032072FDC
S2144048602792269788E82008F2DD25AA0B9920464D
S21440487002F0D4FB00287FF49FAA103E102E279A01
S214404880269FC846E9DC144601373444072F279450
S214404890269788E860007FF7D9AE25AA0B990C9832
S2144048A002F0BCFB00287FF487AA279C269FC846B8
S2144048B0CEE60F9A146813460433E5170F93224644
S2144048C02B46FAE404321C680F9201230025FFF7BA
S2144048D094BA1C6804330F93002521E40F990A46C6
S2144048E004320C680F920025FFF787BA144601334E
S2144048F03444072B2794269388E860007FF768ABFC
S214404900B3E6DDF81CB0CDF81CB042AE303401231F
S21440491006F8414D0E93FFF78DBA25AA0B990C98D1
S21440492002F07CFB00287FF447AA279CC8461F9AC3
S214404930139B9A4244DB079BD90741D4139B12989A
S2144049409A1A1D1A9542A8BF1546002D0EDD2699C7
S214404950C8F80450013106442C440729C8F80060C2
S2144049602794269100F33B8208F10808002DACBF3F
S214404970561B1646002E7FF72DAB102E269BB04DAD
S214404980B5DD22461027DDF830B00B9C04E008F178
S2144049900808103E102EA9DD01331032072B27924F
S2144049A0269388E8A000F2DD25AA2146584602F064
S2144049B035FB00287FF400AA279A269BC846E8E7DE
S2144049C0269B19981A99C8F8001001330444072BFF
S2144049D02794C8F80400269300F3F58108F10808E8
S2144049E0ACE7079BDA073FF5FEAD013701340123FC
S2144049F0072F27942697C8F80060C8F804307FF73A
S214404A0025AE4AE725AA0B990C9802F007FB00282A
S214404A107FF4D2A9279C269FC846F2E525AA0B9983
S214404A200C9802F0FBFA00287FF4C6A9279C269F24
S214404A30C846F5E54E46FFF7FDB925AA0B990C98F2
S214404A4002F0ECFA00287FF4B7A9279CC846FFF787
S214404A5072BA159C22462046149C2346214603F0F3
S214404A60A3FB002840F086820A9B0133119B23F06B
S214404A7020030E9300F0E281472B00F01E814BF49A
S214404A8080730793149B1F1E159B0893BBBF3B4622
S214404A9003F1004700232D231093119B662B00F053
S214404AA0BB81462B00F0DF800E9B089A452B0CBF3F
S214404AB00A9B0A9D23A820A908BF5D1C0490039169
S214404AC01FA802213B460290019500910C9800F0E9
S214404AD073FB119B672B064640F0E0811BF0010FED
S214404AE000F046827419169A0898179B394603F0C8
S214404AF029FB002840F06581239BA34206D2302143
S214404B005A1C23921970239B9C42F9D89B1B1393E3
S214404B100E9B472B00F0E980119B652B40F3CD811F
S214404B20119B662B1F9B129300F09E81139B129A3B
S214404B301946914200F38A811BF0010F40F0138220
S214404B4022EAE273089367230E921193109B002B80
S214404B5040F0C4800A939DF87770FFF773B93546E6
S214404B600C464646904601333C44072B27942693F2
S214404B7088E8A0003FF7D1AE08F10808D7E60F9ABC
S214404B80136804320F92099A1A60FFF76AB825AA8A
S214404B900B990C9802F042FA00287FF40DA9C846FB
S214404BA08DE4269B274AC8F80020013301340122B1
S214404BB0072B27942693C8F8042072DC08F10808CF
S214404BC029B9139B1BB9079BD8077FF503AA269BD9
S214404BD019981A9AC8F80020013302462244072B37
S214404BE02792C8F80400269300F38D8108F1080840
S214404BF00029C0F265811399C8F8006001338C180B
S214404C00072B27942693C8F804107FF7E1A92CE5D4
S214404C100F9A09991368CD170846043229460F9211
S214404C20C3E90001FFF71DB825AA0B990C9802F0BE
S214404C30F5F900287FF4C0A8279CC84658E400BF72
S214404C40148F4000008F400040210C9801F00AFA73
S214404C500B9A10601061002800F0F2810B9A4023F6
S214404C605361FEF7EEBF23A820A90A9C0490039147
S214404C701FA803210290089A01943B4600910C9885
S214404C8000F09AFA25460646119B462B06EB05048D
S214404C907FF429AF3378302B00F078811F9D2C4469
S214404CA021E725AA0B990C9802F0B8F900287FF462
S214404CB083A81F99279CC84682E70A9B002B08BFFB
S214404CC001230A93DBE630460A9402F039F90F9541
S214404CD00E90CDF81CB00346FFF7F9B92D270023F8
S214404CE08DF877700A93FFF7AEB81F9B12931A465B
S214404CF0033304DB0A9B19469142BFF617AF119B5C
S214404D00023B11939DF844308DF88430129B013B52
S214404D10002B1F93BDBF129BC3F101032D222B22F4
S214404D20092B8DF8852040F316810DF1930420461B
S214404D30AB4D00E0104685FB0312D917C1EBA2012C
S214404D4001EB8102A3EB42023032092900F8012C24
S214404D500B4600F1FF32EDDC30330238D9B28442E4
S214404D6002F8011C40F265810DF18600134601E011
S214404D7013F8011B00F8011BA342F9D101339B1A1B
S214404D800DF18602134421AA9B1A139A1B93012AFB
S214404D9013440E9340F319810E9B199A13440E93B5
S214404DA023EAE373089300231293CFE625AA0B99D0
S214404DB00C9802F033F900287EF4FEAF279CC846D4
S214404DC0D7E42346A2E625AA0B990C9802F026F9CA
S214404DD000287EF4F1AF1F9A279CC846AEE525AA68
S214404DE00B990C9802F01AF900287EF4E5AF1F9A4A
S214404DF0139B279C9A1AC846B8E50A9B1296062B20
S214404E0028BF06230A96374608930F95CDF81CB060
S214404E100E93744EFFF716B823A820A90A9D049057
S214404E2003911FA803210290089A01953B460091E2
S214404E300C9800F0C1F9064644192BE706230A935E
S214404E401DE62D278DF87770FFF7CDBA199A139B7C
S214404E501344129A0E93002A40F3B08023EAE37379
S214404E6008936723119371E6002B40F3C3800A9A98
S214404E70002A40F099801BF0010F40F0958008937F
S214404E800E9363E60A9B08930E930A900F95CDF80F
S214404E901CB012909DF87770FEF7D4BF119B472B3D
S214404EA07FF420AE1BF0010F7FF4EEAE239B9B1BDE
S214404EB013930E9B472B3FF418AF1F9B129321E78B
S214404EC04F421031484D2FDA1024DDF830B004E060
S214404ED008F10808103F102F26DD01331032072B4B
S214404EE027922693C8F80050C8F80440F0DD25AA5B
S214404EF00B99584602F092F800287EF45DAF279A48
S214404F00269BC846E6E725AA0B990C9802F086F839
S214404F1000287EF451AF1F99279A269BC84667E61D
S214404F2000200A90FEF7D0BE01333A44072B88E8AB
S214404F30A0002792269308F108087FF75CAE25AAC2
S214404F400B990C9802F06AF800287EF435AF279A41
S214404F50269BC8464FE6303330228DF887308DF892
S214404F60862022AB0FE7129B199A13440E9375E7DF
S214404F70239BCBE5149B1D4E002BB6BF2D279DF8DB
S214404F8077708DF877701A4BFFF72FBA169A0898F5
S214404F90179B394603F0D6F800287FF47FAEC5F15C
S214404FA001051F952C449EE5129B199A13440A9AB4
S214404FB01A4422EAE2730E920893C7E5129B0E9AB1
S214404FC0C3F101031A441346D0E71BF001031293C2
S214404FD07FF4E2AE0E9B23EAE3730893B6E500BF88
S214404FE067666666F88E4000148F4000CC8E4000A0
S214404FF0C88E40000A9B13B91BF0010F02D0199BC4
S2144050000133D4E701233AE70F9D9AF80130286828
S21440501040EAE0700A9028460430A2460F90FEF719
S21440502051BE8DF87710FFF767B88DF87710FFF709
S21440503015BA0DF18603A6E68DF87710FFF7EBB8A4
S2144050400C9A0C2313604FF0FF330993FEF7BDBE56
S2144050508DF87710FFF79AB98DF87710FFF776B985
S2144050608DF87710FFF759B98DF87710FFF712B91A
S214405070024B13B1024800F005B87047000000002C
S2144050800D604000002301461A46184602F044B818
S21440509002690B69934200F38D802DE9F04F03F1CE
S2144050A0FF3801F1140700F1140B57F828205BF87D
S2144050B028304FEA880483B00132B3FBF2F90BEB99
S2144050C00403009407EB040A0193B9F1000F39D0AA
S2144050D000252E46BC46DE465CF8044BDEF8003023
S2144050E0A2B209FB0255220C2C0C09FB0242ADB2BF
S2144050F0751B96B2C6EB134615FA83F306EB2346AA
S2144051009BB243EA0643E2454FEA12454EF8043B5B
S2144051104FEA2646E0D2009B5BF8033093B9019CE9
S214405120231F9B450CD254F8043C4BB9A4F108030A
S21440513002E01A68043B1AB99B4508F1FF38F8D3D9
S214405140C0F81080044601F067FD00282EDB09F108
S21440515001095D46002357F8041B28688AB29A1A4C
S2144051600B0C12FA80F2C3EB104303EB224392B2CD
S21440517042EA0342BA4545F8042B4FEA2343EAD2B3
S2144051805BF828200BEB880382B91A1F93450BD295
S21440519053F8042C42B9083B02E01A68043B1AB99B
S2144051A09B4508F1FF38F8D3C4F81080484603B052
S2144051B0BDE8F08F002070472DE9F04F016C9BB0A2
S2144051C00446279E92469B4641B1426C4A60012364
S2144051D093408B6001F048FB00232364BBF1000F33
S2144051E05D4635DB002333609D4BAB4315D05046C0
S2144051F059460022002302F0A5FF804600282DD005
S214405200269A01231360289B002B00F0BD8095480A
S214405210186001381BB0BDE8F08F269A42F20F7333
S2144052201360BAF1000F0DD1C5F3130555B9289B8D
S2144052308D48002BEED000F10803289A13601BB06F
S214405240BDE8F08F289B8948002BE3D0C31CF4E7C9
S21440525001232BF000453360AB46C5E718AA19ABCF
S2144052600192009352465B46204601F075FD2B0D99
S214405270814671D0CBF3130242F07F51189FCDF890
S21440528050805046A3F2FF3641F440110022784B3E
S21440529002F03CFB6CA3D3E9002302F0EBFC6CA3CA
S2144052A0D3E9002302F034FBCDE90201304602F098
S2144052B07BFC69A3D3E9002302F0DCFC02460B46E4
S2144052C0DDE9020102F024FBCDE9040102F082FF91
S2144052D0002202900023DDE9040102F03DFF002891
S2144052E040F07381029D162D00F25D81614B03EB09
S2144052F0C503D3E9000152465B4602F04BFF002847
S21440530000F0C5816B1E029300230E93BF1B7B1ECD
S214405310069300F1548100230893029B002BC0F2B1
S2144053204581069A0D9311461944002306910C9325
S214405330249B092B2AD8052B40F35B86043B2493F9
S2144053400025249B023B032B00F24286DFE813F045
S214405350D403C902DF036104189F199E3E4406F237
S2144053603243202B40F38E81C3F1400306F21240B5
S2144053709D402AFA00F0284302F006FC0123013E35
S214405380A1F1F871149381E73B4843E7002161643B
S2144053902046259101F042FA4FF0FF330A93259AB2
S2144053A00F9301230490206424920B93199B002BA7
S2144053B0C0F2D980029A0E2A00F3D5802D4B03EB1B
S2144053C0C203D3E90023CDE90823259B002BC0F276
S2144053D0BA83DDE9085650462A463346594602F017
S2144053E073FD02F0F7FE804602F0DEFB2A463346A7
S2144053F002F040FC0B4602465946504602F086FAFA
S214405400049D08F130032B700A9B012B06460F467D
S21440541005F1010568D00022184B02F02BFC002253
S214405420002306460F4602F08DFE002840F0888096
S214405430CDF82C904FF0000ADFF840B00C94DDE930
S214405440088928E0AFF3008061436F63A787D23FA7
S214405450B3C8608B288AC63FFB799F501344D33F1E
S2144054600000F07F018F4000248F4000308F4000C6
S2144054700000F83F608F4000008F4000000024404E
S21440548002F0F8FB0022002306460F4602F05AFEC2
S214405490002840F0C18342464B463046394602F02B
S2144054A013FD02F097FE044602F07EFB42464B4652
S2144054B002F0E0FB02460B463046394602F026FA3A
S2144054C004F1300E049E05F801EBA5EB060E0A9E8D
S2144054D0B645CDE9060152465B46D1D1A046DDF839
S2144054E02C900C9C06460F4632463B463046394684
S2144054F002F00EFA06460F4602460B46DDE9080164
S21440550002F02AFE48B932463B46DDE9080102F081
S21440551019FEA8B118F0010F12D015F8018C049AA4
S2144055206B1E04E09A4200F0018413F8018DB8F136
S214405530390F03F10105F5D008F1010883F8008022
S2144055404946204601F090F90022029B2A70269A8E
S21440555001331360289B002B00F09E8304981D6047
S2144055601BB0BDE8F08F0B9A002A3ED0249A012A41
S21440557040F311830A9B0C9A5F1EBA42C0F28F8397
S214405580D71B0A9B002BC0F28B84089D0A9B089A67
S2144055901A440892069A01211A442046069201F0BF
S2144055A0FDF9064624E001230E93AFE6089A029BD7
S2144055B0D21A5B420C93002308920D93B8E6C7F1CB
S2144055C00103089300230693A7E6029D284602F0AF
S2144055D0EBFA02460B46DDE9040102F0B3FD002873
S2144055E07FF480AE6B1E02937CE60C9F089D0B9E5C
S2144055F0002D0CDD069900290B4608DDA942089AC5
S214405600A8BF2B46D21AED1ACB1A089206930C9BCB
S214405610D3B10B9B002B00F0B782002F10DD314634
S2144056203A46204601F056FA4A4601460646204685
S21440563001F0BEF949468046204601F015F9C146BC
S2144056400C9BDA1B40F0A1820121204601F0A6F90E
S2144056500D9B002B80461CDD01461A46204601F075
S21440566039FA249B012B804640F3548200230C9346
S214405670D8F8103008EB8303186901F03FF9C0F101
S214405680200010E0C3F120050AFA05F074E60E90FB
S2144056903CE6249B012B40F3878200230C930D9B12
S2144056A00120002BE4D1069A104410F01F0000F0B1
S2144056B0A180C0F12003042B40F39E84089BC0F1D8
S2144056C01C00034408931346034405440693089B72
S2144056D0002B05DD49461A46204601F04BFA814626
S2144056E0069B002B05DD41461A46204601F042FA4D
S2144056F080460E9B002B40F086800A9B002B40F392
S21440570066820B9B002B00F09880002D05DD31460D
S2144057102A46204601F02EFA06460C9B002B40F007
S214405720378306960A9B049ADDF818B0013BD318D7
S2144057300B930AF001030C931746C246514648465F
S214405740FFF7A6FC31460546484601F065FA5A463C
S2144057500A905146204601F07BFAC268804605F121
S2144057603003002A40F02B8201464846089301F059
S21440577053FA41460690204601F076F8069A089B72
S21440578032B9249921B90C9A002A00F0EF83249A62
S2144057900A990029C0F29F8205D1249919B90C991B
S2144057A0002900F09882002A00F306830B9A3B708B
S2144057B007F101089742454600F00C83494600230E
S2144057C00A22204601F05AF85E45814631464FF09F
S2144057D000034FF00A02204600F0EB8101F04EF83D
S2144057E05946064600230A22204601F047F8474617
S2144057F08346A3E71C20089B03440893069B034468
S2144058000544069363E74146484601F005FA0028FA
S214405810BFF673AF029F494600230A222046013F47
S214405820029701F02BF80B9B8146002B40F0B68385
S2144058300F9B002B40F3BF830A93DDF810B00A9FFE
S2144058405D4602E001F01AF8814641464846FFF7B9
S2144058501FFC00F1300A05F801ABA5EB0B03BB4279
S2144058604FF00A024FF0000349462046EADB049B0D
S2144058700A9A012AACBF9B1801331D464FF0000B15
S21440588049460122204601F075F94146814601F01D
S214405890C3F9002840F33D8215F8012C04996B1E8D
S2144058A004E08B4200F0AE8113F8012D392A03F153
S2144058B00105F6D001321A704146204600F0D4FF6A
S2144058C0002E3FF43DAEBBF1000F05D0B34503D0EC
