S0140000576966695F546573746265642E7372656357
S214400000F0340020550A40001D0B40001D0B4000F8
S2144000101D0B40001D0B40001D0B40000000000063
S2144000200000000000000000000000001D0B400023
S2144000301D0B4000000000001D0B40001D0B400043
S2144000401D0B40001D0B40001D0B40001D0B4000CB
S2144000501D0B40001D0B40001D0B40000000000023
S2144000601D0B40001D0B4000000000000D0240002C
S21440007025024000000000001D0B40001D0B400004
S21440008000000000000000001D0B40001D0B40005B
S2144000901D0B40001D0B40001D0B40005902400048
S2144000A01D0B40001D0B400000000000000000003B
S2144000B0000000001D0B40001D0B40001D0B4000C3
S2144000C01D0B40001D0B40001D0B400010B5054C9D
S2144000D0237833B9044B13B10448AFF300800123AF
S2144000E0237010BD34040020000000000C0F4000B8
S2144000F00C4B43B10C480D4910B5AFF300800C488B
S214400100036823B910BD0A48036833B97047094BE2
S214400110002BF7D0BDE810401847064B002BF5D013
S214400120184700BF000000000C0F400038040020B5
S2144001300C0F40000000000080B584B000AF78602F
S214400140396078682C4B9847F86078682B4B98470E
S2144001500246FB681340FB60FB68002B3CD0002344
S214400160BB6034E0264ABB681B0113441A683B68F0
S2144001709A4226D1224ABB681B01134404331A68AC
S214400180FB681340002B1CD01D4ABB681B01134460
S2144001900C331B681A49BA6812010A441068184999
S2144001A0BA6812010A440432126811469847144A43
S2144001B0BB681B01134404331B68DB43FA681340D7
S2144001C0FB60BB680133BB60BB68062B03D8FB688B
S2144001D0002BC7D100E000BF0A4B1B68002B07D09E
S2144001E0094B1B68002B03D0074B1B687868984761
S2144001F000BF1037BD4680BDED05400003064000F9
S21440020050040020C8040020C004002080B500AF81
S2144002100B210248024B984700BF80BD000E0E409F
S2144002203901400080B500AF0C210248024B984788
S21440023000BF80BD00100E403901400080B483B03E
S21440024000AF78607B684FF400425A6000BF0C37BE
S214400250BD4680BC7047000080B582B000AF00212C
S21440026009480A4B984778607B6803F01003002BD8
S21440027006D0074B1B78DBB20133DAB2044B1A7058
S21440028000BF0837BD4680BD00000140E50840007D
S214400290C404002080B582B000AF78607B68072B2E
S2144002A031D801A252F823F005034000C9024000AD
S2144002B0D1024000D9024000E1024000E90240007D
S2144002C0F1024000FB0240000020114B98471AE024
S2144002D001200F4B984716E000200E4B984712E03F
S2144002E010200C4B98470EE020200A4B98470AE017
S2144002F03E210020084B984705E03E210120064B52
S214400300984700E000BF00BF0837BD4680BD00BF2D
S21440031099064000050740007507400080B582B04A
S21440032000AF78607B68072B26D801A252F823F0EE
S214400330510340005503400055034000670340000A
S21440034067034000670340006703400067034000C0
S214400350012312E00B4B98470346002B14BF0123A2
S2144003600023DBB209E0084B98470346002B14BF36
S21440037001230023DBB200E0002318460837BD46C1
S21440038080BD00BFD1064000ED07400080B483B07A
S21440039000AF78607B68072B25D801A252F823F07F
S2144003A0C1034000C7034000CD034000D3034000D4
S2144003B0D7034000DB034000DF034000E303400078
S2144003C04FF4FA4310E04FF400430DE04FF400437F
S2144003D00AE0084B08E0084B06E0084B04E0074BF1
S2144003E002E0064B00E0002318460C37BD4680BCB2
S2144003F0704700BF00093D0000127A00001BB7009E
S21440040080B582B000AF0346FB7100BFFB7918464B
S214400410054B9847034683F00103DBB2002BF5D12A
S21440042000BF0837BD4680BD1D03400080B586B07E
S21440043000AFF8607A603B600B46FB72FB7A18466A
S2144004400D4B984702467B68B2FBF3F37B617B69B2
S2144004503A6802FB03F37B613B68013B1A04074B97
S21440046013407A68D2B2134343F47C52FB681A6056
S21440047000BF1837BD4680BD8D0340000000FF0713
S21440048080B582B000AF786039603B68002B08D1F9
S214400490094B9847094A7B681B6843F000539362B0
S2144004A005E0074B9847054A7B681B68D36200BF48
S2144004B00837BD4680BD00BF0508400000040E401A
S2144004C03508400080B582B000AF78607B68002B6E
S2144004D003D1054B9847034602E0044B9847034632
S2144004E018460837BD4680BD1D0840004D084000F0
S2144004F080B582B000AF0346FB71FB79033B042B0B
S21440050008D8FB791846064B9847FB791846054BA2
S214400510984700E000BF00BF0837BD4680BD00BF1B
S214400520950240000104400080B582B000AF78607C
S21440053000BF7868044B98470346002BF9D0002349
S21440054018460837BD4680BDC504400080B500AF9C
S2144005500620044B9847024613469B0013449B00D4
S214400560184680BD8D03400080B500AF024B9847CB
S21440057003465B08184680BD4D05400090B583B0E5
S21440058000AF1148114B98470620114B9847381D2D
S2144005901423012206210F4CA0473B1D002118467C
S2144005A00D4B984700200D4B984710200C4B984712
S2144005B00C4B98470C4B984703461846034B9847B6
S2144005C000BF0C37BD4690BD000E2707BD0C40004F
S2144005D0F10440002D0440008104400029054000FD
S2144005E019064000250B40006905400080B483B0E2
S2144005F000AF78607B68DB6C18460C37BD4680BC25
S214400600704780B483B000AF78607B689B6C1846B8
S2144006100C37BD4680BC704780B485B000AF78606C
S2144006201C491C4B1B6B23F070027B6813430B6307
S2144006304FF40063FB6007E0FB68002B01D1012309
S21440064023E0FB68013BFB60124B9B6E03F0080304
S214400650002BF1D00F4A0F4B1B6B23F0030343F0E4
S214400660020313634FF40063FB6007E0FB68002B54
S21440067001D1012309E0FB68013BFB60054B9B6E03
S21440068003F00803002BF1D0002318461437BD466C
S21440069080BC704700040E4080B483B000AF7860E2
S2144006A07B68012B07D1084A074B9B6843F02543DC
S2144006B043F480139360044B044A1A6000BF0C371F
S2144006C0BD4680BC704700BF10140E40080000A511
S2144006D080B400AF094B5B6903F08003002B07D062
S2144006E0074B9B6E03F08003002B01D0012300E0F4
S2144006F000231846BD4680BC704700BF10140E400D
S21440070000040E4080B483B000AF7860184A184B9F
S2144007101B6A43F45C1343F00803136200BF144B98
S2144007209B6E03F40033002BF9D01149104B1B6A23
S21440073023F45C1323F070037A68134343F45C138A
S2144007400B6200BF0A4B9B6E03F40033002BF9D0BC
S214400750074A074B1B6A23F09B7323F4803343F40A
S2144007605C13136200BF0C37BD4680BC704700BFA9
S21440077000040E4080B483B000AF786039607B6878
S214400780002B08D01649164B1B6A164A1A40164BC1
S21440079013430B621EE01249114B1B6A23F45C1391
S2144007A023F003033A68120292B2134343F45C13F5
S2144007B043F001030B6200BF094B9B6E03F001033D
S2144007C0002BF9D0064A064B1B6A43F09B7343F452
S2144007D08033136200BF0C37BD4680BC704700BFF5
S2144007E000040E40FCFFC8FE0200370180B400AF94
S2144007F0034B9B6E03F480331846BD4680BC70475F
S21440080000040E4080B400AF034B4FF000529A6293
S21440081000BFBD4680BC704700040E4080B400AFA9
S214400820034B9B6E03F002031846BD4680BC7047E0
S21440083000040E4080B400AF034B0022DA6200BFD3
S214400840BD4680BC704700BF00040E4080B400AF79
S214400850034B9B6E03F004031846BD4680BC7047AE
S21440086000040E4080B483B000AF78607B68222BD3
S21440087001D901232FE07B681F2B13D8184B9A69A8
S21440088001217B6801FA03F31A4001217B6801FAD3
S21440089003F39A421ED0124A01217B6801FA03F301
S2144008A0136117E07B68203B7B600D4BD3F8082133
S2144008B001217B6801FA03F31A4001217B6801FAA3
S2144008C003F39A4206D0064A01217B6801FA03F3F5
S2144008D0C2F80031002318460C37BD4680BC70472E
S2144008E000040E4080B485B000AF786039607A6806
S2144008F03B689B011344FB60FB681B6A1846143731
S214400900BD4680BC7047000080B582B000AF7860BE
S2144009107868034B984700BF0837BD4680BD00BF88
S2144009206508400080B500AF0B20034B98470C206D
S214400930014B984700BF80BD0909400080B48DB088
S21440094000AF78600B46FB707B68FB62FB7887F8ED
S2144009502B30FB6A7B627B6A3B623B6A5B09FB61CE
S214400960FB6903F5001303F207735B02BB6197F85C
S2144009702B30012B09D1FB6A7B617B6903F01F0397
S21440098001229A40BB691A610CE097F82B30002B85
S21440099008D1FB6A3B613B6903F01F0301229A4082
S2144009A0BB695A61FB6AFB60FB6803F01F030122C8
S2144009B09A40BB69C3F8A02000BF3437BD4680BC10
S2144009C0704780B48BB000AF78600B46FB707B6896
S2144009D07B62FB7887F823307B6AFB61FB69BB61EF
S2144009E0BB695B097B617B6903F5001303F2077300
S2144009F05B023B6197F82330002B09D07B6AFB6093
S214400A00FB6803F01F0301229A403B691A6308E023
S214400A107B6ABB60BB6803F01F0301229A403B69B8
S214400A205A6300BF2C37BD4680BC704780B500AFC8
S214400A30054B984701211420044B98470121142068
S214400A40034B984700BF80BD250940003D09400044
S214400A50C309400080B584B000AF274BFB60274BEE
S214400A60BB60FA68BB689A420DD907E0BB681A1D9E
S214400A70BA60FA68111DF96012681A60BB68204AAD
S214400A809342F3D320E0FA68BB689A421CD21C4AD1
S214400A901A4BD31A7B60FA687B681344043BFB60AE
S214400AA0BA687B681344043BBB600AE0BB681A1F05
S214400AB0BA60FA68111FF96012681A607B68043BD6
S214400AC07B607B68002BF1D100BF0E4BBB6004E01F
S214400AD0BB681A1DBA6000221A60BB680A4A934275
S214400AE0F6D30A4BFB600A4AFB689360094B98476B
S214400AF0094B9847FEE700BF0C0F4000000000205F
S214400B003404002034040020F0040020000040009C
S214400B1000ED00E0750D4000510D400080B400AF80
S214400B20FEE7000080B400AF5D4B1B6B03F0030391
S214400B30032B00F2968001A252F823F04D0B4000A2
S214400B406D0B4000B70B4000B70B4000554B5B6940
S214400B5003F08003002B04D0534B4FF400421A603E
S214400B6080E0514B4FF4FA421A607BE04C4B1B6AD4
S214400B7003F08073002B03D04B4B4C4A1A6071E055
S214400B80494B4B4A1A60464B1B6A03F07003102BC6
S214400B9008D0202B0AD0002B00D00BE0424B444A12
S214400BA01A6007E0404B434A1A6003E03E4B3F4A18
S214400BB01A6000BF56E03A4B1B6A03F08073002B66
S214400BC003D0394B394A1A6019E0374B384A1A6015
S214400BD0334B1B6A03F07003102B08D0202B0AD02F
S214400BE0002B00D00BE0304B314A1A6007E02E4B0A
S214400BF0304A1A6003E02C4B2C4A1A6000BF284B40
S214400C001B6B03F00303022B15D1254B9B6A1B0C71
S214400C10C3F30A030133244A126802FB03F3224A51
S214400C2013601F4B9B6ADBB21F4A1268B2FBF3F39A
S214400C301D4A136016E01A4BDB6A1B0CC3F30A030B
S214400C400133194A126802FB03F3174A1360144B28
S214400C50DB6ADBB2144A1268B2FBF3F3124A136043
S214400C6000E000BF0E4B1B6B03F07003702B08D1E7
S214400C700D4B1B68104AA2FB03235B080A4A13600D
S214400C800AE0074B1B6B1B0903F00703064A126872
S214400C9022FA03F3044A136000BFBD4680BC704787
S214400CA000040E4010140E4000000020001BB70049
S214400CB000093D0000127A00ABAAAAAA80B483B00D
S214400CC000AF78607B68184A934204D8174B4FF0C1
S214400CD080621A6023E07B68154A934203D8134B20
S214400CE0144A1A601BE07B68134A934203D80F4BA2
S214400CF0124A1A6013E07B68114A934203D80B4BA2
S214400D00104A1A600BE07B680F4A934204D8074BA0
S214400D104FF004221A6002E0044B0C4A1A6000BFEF
S214400D200C37BD4680BC7047FF2C3101000A0E4090
S214400D30FF59620200010004FF869303000200048C
S214400D40FFB3C40400030004FFE0F50500050004FB
S214400D5080B500AF034B98470348044B9847044B75
S214400D609847FEE77D05400050140E403D02400087
S214400D702D0A400070B50F4E0F4D761BB61018BFAB
S214400D80002405D0013455F8043B9847A642F9D1D3
S214400D900A4E0B4D761B00F0A7F8B61018BF00247D
S214400DA006D0013455F8043B9847A642F9D170BDA9
S214400DB070BD00BFF40E4000F40E4000FC0E400034
S214400DC0F40E4000024B13B1024800F005B87047DD
S214400DD000000000E50D4000002301461A46184674
S214400DE000F01EB838B50A4C0A4D641BA4100AD051
S214400DF004F18043013B05EB8305013C55F804397B
S214400E009847002CF9D1BDE8384000F077B800BFCD
S214400E100C0F4000080F4000704700BF704700BFEF
S214400E202DE9F8432C4D0646286898460F469146CD
S214400E30FFF7F2FF294B1C68D4F84831002B3ED010
S214400E405A681F2A1CDC02F1010E76B103EB8201C0
S214400E500124C1F88890D3F8880194402043022E9C
S214400E60C3F88801C1F8088123D00232C3F804E0F1
S214400E70286843F82270FFF7D1FF0020BDE8F883CA
S214400E80174B0BB34FF4C870AFF300800346D8B18E
S214400E90D4F848210260002141600A46C4F848015F
S214400EA04FF0010EC0F88811C0F88C11002EDCD02F
S214400EB0CCE7D3F88C110C43C3F88C41D5E704F546
S214400EC0A673C4F84831BBE72868FFF7A7FF4FF082
S214400ED0FF30BDE8F88300BF30040020E40E400039
S214400EE00000000008000020F8B500BFF8BC08BCB1
S214400EF09E467047C50D4000F1004000F8B500BF63
S210400F00F8BC08BC9E467047CD00400080
S214400F0C00093D000000000000000000F402002034
S214400F1C5C030020C403002000000000000000001A
S214400F2C0000000000000000000000000000000070
S214400F3C0000000000000000000000000000000060
S214400F4C0000000000000000000000000000000050
S214400F5C0000000000000000000000000000000040
S214400F6C0000000000000000000000000000000030
S214400F7C0000000000000000000000000000000020
S214400F8C0000000000000000000000000000000010
S214400F9C0000000000000000000000000000000000
S214400FAC00000000000000000000000000000000F0
S214400FBC01000000000000000E33CDAB34126DE68D
S214400FCCECDE05000B0000000000000000000000F6
S214400FDC00000000000000000000000000000000C0
S214400FEC00000000000000000000000000000000B0
S214400FFC00000000000000000000000000000000A0
S21440100C000000000000000000000000000000008F
S20840133CCC04002078
S804400A555C
