:020000040040BA
:10000000E0380020E9024000E5024000E50240003F
:10001000E5024000E5024000E5024000000000006B
:10002000000000000000000000000000E5024000A9
:10003000E502400000000000E5024000E50240004B
:10004000E5024000E5024000E5024000E502400014
:10005000E5024000E5024000E5024000000000002B
:10006000E5024000E502400000000000A101400060
:10007000B501400000000000FD014000E502400025
:100080000000000000000000E5024000E502400022
:10009000E5024000E5024000E5024000E5024000C4
:1000A000E5024000E5024000000000000000000002
:1000B00000000000E5024000E5024000E5024000CB
:1000C000E5024000E5024000E502400010B5054CA5
:1000D000237833B9044B13B10448AFF300800123F4
:1000E000237010BD2C040020000000003C054000DF
:1000F0000C4B43B10C480D4910B5AFF300800C48D0
:10010000036823B910BD0A48036833B97047094B27
:10011000002BF7D0BDE810401847064B002BF5D058
:10012000184700BF000000003C05400030040020DC
:100130003C054000000000002DE9F84381460F46D1
:10014000124B984705464846114B9847054013D037
:10015000104C04F1600603E0B4420DD010345DB1E0
:100160002068B842F8D161682942F5D0E368984721
:10017000636825EA0305EFE7074B1B6823B1074BCC
:100180001B680BB148469847BDE8F8834102400020
:100190004502400048040020B4080020B8040020B4
:1001A00008B50B210148024B984708BD000E0E40D0
:1001B0003901400008B50C210148024B984708BDA1
:1001C00000100E403901400040697047436913F048
:1001D000010F05D08369C3F308030B60002070474B
:1001E00001207047034B1A68034988541A6801328A
:1001F0001A607047BC040020C804002010B50A48EB
:100200000A4B984710F4805F00D110BD084C21467E
:100210000548084B98470122074B1A702068C0B266
:10022000064B9847F1E700BF00400240C90140007B
:10023000C4040020CD014000C0040020E5014000BE
:10024000C06C7047806C704722281ED81F280CD8BD
:10025000114B9A6901238340934318D0012303FA79
:1002600000F00D4B18610020704720380A4BD3F87E
:1002700008210123834093430BD0012303FA00F0AC
:10028000054BC3F800010020704701207047002093
:1002900070470020704700BF00040E4010B50B20CF
:1002A0000E4CA0470C20A0470D4B02225A61C3F808
:1002B000A0205A63A3F500734FF400611961C3F8DD
:1002C000A01059635A61C3F8A0201A6303F5803364
:1002D00001225A61C3F8A0205A6310BD49024000B0
:1002E00000100E40FEE7000008B5214B214A9A425B
:1002F00028D9214B1E4A9A420CD2013B9B1A23F06B
:100300000303043313441B4951F8040B42F8040B54
:100310009A42F9D100BF194B194A9A420AD2013BBD
:100320009B1A23F0030304331344002142F8041BF7
:100330009A42FBD1134B144A9A60144B9847144BC2
:100340009847FEE70A4B0B4A9A42E3D20A4B084809
:10035000181A1146043A02440028DBD0C1F1040106
:1003600052F8040943F8040DCA42F9D1D2E700BF9C
:10037000000000203C0540002C040020DC08002088
:100380002C04002000ED00E000004000A503400028
:100390009503400008B5024B9847002008BD00BFF8
:1003A0009D02400070B50F4E0F4D761BB61018BF62
:1003B000002405D0013455F8043B9847A642F9D1F2
:1003C0000A4E0B4D761B00F0A7F8B61018BF00249C
:1003D00006D0013455F8043B9847A642F9D170BDC8
:1003E00070BD00BF24054000240540002C054000DE
:1003F00024054000024B13B1024800F005B87047D5
:100400000000000015044000002301461A4618466B
:1004100000F01EB838B50A4C0A4D641BA4100AD06F
:1004200004F18043013B05EB8305013C55F8043999
:100430009847002CF9D1BDE8384000F077B800BFEC
:100440003C05400038054000704700BF704700BFC2
:100450002DE9F8432C4D0646286898460F469146EC
:10046000FFF7F2FF294B1C68D4F84831002B3ED02F
:100470005A681F2A1CDC02F1010E76B103EB8201DF
:100480000124C1F88890D3F8880194402043022EBB
:10049000C3F88801C1F8088123D00232C3F804E010
:1004A000286843F82270FFF7D1FF0020BDE8F883E9
:1004B000174B0BB34FF4C870AFF300800346D8B1AD
:1004C000D4F848210260002141600A46C4F848017E
:1004D0004FF0010EC0F88811C0F88C11002EDCD04E
:1004E000CCE7D3F88C110C43C3F88C41D5E704F565
:1004F000A673C4F84831BBE72868FFF7A7FF4FF0A1
:10050000FF30BDE8F88300BF280400201405400038
:100510000000000000000020F8B500BFF8BC08BCD7
:100520009E467047F5034000F1004000F8B500BF5B
:0C053000F8BC08BC9E467047CD0040009F
:10053C0000000000EC02002054030020BC0300204B
:10054C00000000000000000000000000000000009F
:10055C00000000000000000000000000000000008F
:10056C00000000000000000000000000000000007F
:10057C00000000000000000000000000000000006F
:10058C00000000000000000000000000000000005F
:10059C00000000000000000000000000000000004F
:1005AC00000000000000000000000000000000003F
:1005BC00000000000000000000000000000000002F
:1005CC00000000000000000000000000000000001F
:1005DC00000000000000000001000000000000000E
:1005EC000E33CDAB34126DE6ECDE05000B000000D3
:1005FC0000000000000000000000000000000000EF
:10060C0000000000000000000000000000000000DE
:10061C0000000000000000000000000000000000CE
:10062C0000000000000000000000000000000000BE
:0C095C000000000000000000B8080020AF
:04000005004002E9CC
:00000001FF
